:100000000C94C3070C94EE070C94EE070C94EE07C7
:100010000C94EE070C94EE070C94EE070C94EE078C
:100020000C94123D0C94EE070C94EE070C94EE0722
:100030000C94EE070C94581E0C94EE070C94EE07EB
:100040000C94EE070C94EE070C94EE070C94EE075C
:100050000C94E93C0C94BF3C0C94EE070C94EE0716
:100060000C94EE070C94EE070C94EE070C94EE073C
:100070000C94EE070C94EE070C94EE070C94EE072C
:100080000C94EE070C94EE070C94EE0704000000AD
:100090000004040000000004000000000000000450
:1000A000000000000004000200000400040000043E
:1000B000070404000004040400000202000000021F
:1000C00004070004070704000404000004000202FF
:1000D00004040404040000040004040404040404EC
:1000E00000040002030400040400040004000004EF
:1000F0000004000000000000000001020102F00006
:1001000088320200010000007C3103000100000081
:1001100088310400010000008B310500010000005F
:10012000D03106010001D8030F19070001000000BB
:10013000851908010001EF0069190900010000009C
:1001400029320A020101D30347320B030103EC00F9
:100150002A320C020102EA005C320D020002F000B9
:100160001F350E020002BF0324350F030003EC000D
:10017000973510020002EA009E1B11050005E500FC
:10018000541B12020002BF03A72F13010001EF004E
:10019000892E14020002EA00671215020002BF0352
:1001A000F41116040004E1008F1217050005DC00AD
:1001B000111218010001EF00552E19080008D40093
:1001C000E12E1A030003D100C72E1B020002BF0359
:1001D0008F2B1C020002EA00392B1D040004B70318
:1001E000F12B1E010001EF006D2A1F080008C90055
:1001F000FF1320020002EA007F2A21040003C1034A
:10020000A51322030002C403EA1523030002C4035A
:10021000FA1524040004BB03521425010001EF0069
:100220009D1326030003C600CF1327050003C30058
:10023000F12F28040003C000C93029030002C403C1
:10024000D62F2A040004BB0326312B010001EF0046
:10025000C1302C030003BD00D6202D030003C603CC
:100260004C1D2E060006B700C61D2F020002BF035C
:10027000E12830050005B2004E2031040004CD0312
:10028000AA2032020002BF038B2033040003AF0018
:10029000792834050005AA001A2935010001EF006C
:1002A000773336040003A803223437050005A50080
:1002B000B22738040004BB03273339030003C60008
:1002C00059333A030002C4036F343B030002C403F2
:1002D00000353C0600069F008E343D030002C40337
:1002E0001D173E030002C40339173F08000897009A
:1002F0005517400600069F00C317410500059200F0
:10030000D616420600068C00492543030003D1009F
:100310008B2544010001EF00453945020002EA0047
:10032000A53946020002BF03263947030002C40371
:10033000502348040004B703342249030003D100CA
:10034000F5384A010001EF006F224B020002EA007B
:10035000FD244C020002BF03DA214D010001EF0031
:10036000F3224E020002EA00B1244F020002BF0352
:10037000BB2150010001EF00452451020002EA00B8
:10038000F92152010001EF00182153050005B200C8
:100390004F2154020002BF039C21550001000000C0
:1003A000B33C5600050000000402070400000200F0
:1003B0000204040004000704000004040000000418
:1003C00004040407040704000204040400040400F5
:1003D00004040107040004020000000000000006FD
:1003E0000002026D4003A8036C1D06AB036B0F03F4
:1003F000B1036A4003B403691404B703681704BB6C
:1004000003670A02BF03664002C403654003C103D9
:10041000644002C403634002C403621003C6036164
:100420001104C903601104CD035F0D02D1035E0BFB
:1004300001D8035D4001D3035C1204D4035B0B01BC
:10044000D8035A1002D903591503DB03004002DE1A
:1004500003580E02E003570901E2035606000000AC
:1004600000010203040506072000230026002900DE
:100470000B47004400450080010C48004400450043
:1004800020011D88008000810080001C8A008000FF
:10049000810020001FB300B000B10080031EB40033
:1004A000B000B10020030E98009000910080000F72
:1004B0009A0090009100200078DA9D597B6FDB381C
:1004C00012FF2A5C03C5DD1E92C0922D59CE61FF3A
:1004D000489CECA268D3669BE67AC0612128126D25
:1004E00013D16B45298F5BF4BBDF0C872FC96E0BD3
:1004F0005C812222392487F3F8CDC37FCDB2B69D2B
:100500009DCFDE95A26D79373B993D0CA22CD22769
:10051000DE49D1D4129676797ECEFEFEDB66F333C9
:100520008BCE966773F620EAA117A5C4D90FF7EC16
:10053000520F7F66E159189F85F3209E076104479B
:10054000E54D5565750187FC35CBCAB2C9B39EA789
:100550008D2824CB9BA1EE7F7993CFCE13BCB1EF36
:10056000E1AA34CB1F19ACC2B4B7BE5C79044561B3
:1005700008DA46AA3FA2FEE5CDC0DAA12CD3A1A598
:100580000D6BB7E1CF8177AFF64C60E011A93B2E40
:10059000FBB417F9A3A451DF65B5AC449F9A5B99EE
:1005A000A8E1FDFA7E60302F79D6A5723FF445F3BD
:1005B0005CCFCE437C5ABD153BE0E8A55C2C237391
:1005C000856C454A9FB3F3D5DC51D559D9EC5251CE
:1005D0005BEE15DBB3F3853B49B36C2868983A3979
:1005E00044EE3835C9BBF1612319442B4B5C889D1F
:1005F000E8B3326D867EB2E1292B078EE3826FB3BA
:10060000A1EC533B51652F693174590F16A0F80CBA
:10061000DC791CF4D937EDE8AC7C7479185BE27DA9
:10062000B15CAE92B921EE64AAEFE6E6A358DAAF68
:10063000C87EC5F66B65BF7899BD5AA5CDCEE3855A
:10064000BD44843933425FBAE9B2C8833808CDDD8E
:10065000406555932C1D959061F17C547F6B4B54F4
:10066000B5C33A8CE6C78E5AB9C7D6BC69C50B2F3D
:1006700027622EB23E4BA5F82F48763F80EFF42933
:100680008AD7333FC9614AD4DEE3A2C81EDA3E5797
:10069000475497BF8249BA33B4E2F6C354953073D6
:1006A000A0CBA5E3189E3B3D18BDB0174F3CDD8B9A
:1006B000DD5EBD7091F8F460CBBB921FCA8BD9B5DB
:1006C000B47F6D39C96631DA69FCE7D866BD9456E6
:1006D00072F7CB9B7F00602CC67B9F45BF0731A480
:1006E000B9B4AA5E389B94FD6A1D5AF5E4D6CA6473
:1006F0005E3EDA6F51D8CFD73A4FC706C5F2AA4847
:100700000F6C6CEEDDC0111E2DEB304CB5E917A25D
:10071000339F041B8AD8510DA5E4DEA1A17B58BFED
:10072000E75DD58037B74725EA2F3BA1C6EED97DD7
:10073000950F59676DA37B490FA080F576122DAFF9
:100740001715270B73C0D377280F27567874C11F4E
:1007500006B0E70602C3DA8CE0949DB265D24F6022
:10076000C93A9E012A7705EFF03E80E88E202334B7
:1007700004CF9DE8F901051A2D110627335EF16EAD
:10078000C7EBFC35456C0126608A7026DD37153FC6
:1007900040709955ADEF007A6CF17B8CF0C0BAC314
:1007A000367AAE957127763BDEE12324FA07C257ED
:1007B000E42E57F10378CA7A6E051402786C05208E
:1007C0003AB8744A3264799793C59CCC76E0CD8A66
:1007D0004F10B21E291A70071A0E2D6A01FCF06420
:1007E000A6E13195705F0A1668D11FBF49CE7138F6
:1007F0002143151832A78E188488B0543585D8BE89
:10080000A6A06B7B56C7954B311DC480035CD55E9B
:10081000B6A66DA4C3313DCEA525D7A0312742B5DC
:100820007D903E12C250E118C808FFA27AB9245B3D
:100830005F866E976CB6FD73D6717F3BF8A7F5C9DE
:1008400022339FC74E8A233A49DBD2F4F94B7C7E90
:10085000C1EB1E1ECF9AED162E544E6DA327ACEBA6
:100860007880CC0CDF30AB7E0F17EE9BB250831F2D
:10087000194A02566A305FE9C69A48E4AF0C6DE146
:10088000CC87F296FDE0F11E8121909D4D928991D9
:10089000118308D6133A65978303C438B104D37C17
:1008A000E3FF749CCA398E8E246E0439D30E36EE63
:1008B00079FEE865298BC0F03049522C076D03D8CA
:1008C00034BDDF0B7DB1396012BF27D24882099D4C
:1008D000D2E8C45593704A34115932B704A33C602E
:1008E00072D92A19934D8F59ADCCFA2453989E137F
:1008F0004DE80E0EB2B670106ABF91BD22964064EC
:10090000155B92FFCABEF85870F9C6199E9A475AED
:10091000A6010435C0BAC253724C3A1AF8B1E4D2F7
:10092000DED1F8194D10992D9384C6925BCB026FDE
:10093000B6C418412DD6A03951D0308EBD572001F4
:100940007F05C032BC5CE552A0D5487FAAFD84C6B5
:10095000D3FB6003E81E69FC374C3263E07B7140D7
:10096000A45EA012307BE6281B834D316DAAF98B63
:10097000660172040B5AA2A33012109191C70F3274
:100980003B900AD886976461CDB275FEE5F0641598
:10099000109D8748DEEA62695647408E531AC82187
:1009A00084700F86614BECB61C43F14AC8C6607771
:1009B000D548712CFB3A3834D67C7CFB1D0BD022F9
:1009C0002576DF8B8FD17A4C753C3C460952A914B1
:1009D0002EC5180C282C3021B68E17AC1D818AFC30
:1009E00068BD04F9CC46002F1EC00E385227602384
:1009F00051AB086503288503D088DE8D3244973DCE
:100A0000E201601289A3EBFDC48EB74DA7B30AF2D1
:100A10005E35B646C25F5A012AF17398B53D69F258
:100A20000A9F08508B82D3313FF67C60F9D5248B26
:100A300058C85F5C6DD29B8B7F630A88B9ECE5FD7B
:100A40005D7AFBF6C31D22D6EC7C767B199FDC5EBB
:100A500046F07F35F316FB67B5B8999FDC6E0258F8
:100A6000D8BCFFB87997FEFAE9FA777497B9FA77A4
:100A700032BBD9DC0355D6577C970561B26C81F245
:100A8000F6CB0D5D176255F4E97A73FDF65FD7E991
:100A900097B71FAE3E7E41BD85387977FD0926891F
:100AA0000DDE89ACC4CBAEE0B22BBC0C56DF5EBC15
:100AB0004F2F2FEEAFF018BAEBEEF3C5E7BBF4EE15
:100AC000FEE6EE7758B9BBC695F82BA67E0324A3A5
:100AD000AA5C527D0B9DE2E0A77AC41C68C0A87195
:100AE0007C7B319F9DFF677E92FC016C5EE27742CA
:100AF000DF1BFC061450832B1C40D298FCF175E4DC
:100B0000C090D0ABBE48B0582CE0D8935926A3F97A
:100B10007255A864A52F79340FC207E04AEFD23C82
:100B20002829230F1839041A4A0789792A0AAD1A85
:100B3000A654B8A5F04CB5F8458996F8CA4CD25AD7
:100B400010AC6DB29AD54DCFC02419BA350324220A
:100B5000F861CAB2D8F35EC0375988642DD838DC42
:100B600044B869F60E92AB08D4056CDB740C74F5CE
:100B70004F331612570B35AFA62439026CFD5B8F2D
:100B8000B00D15D90E1882A42BEB913AD36C52FDFF
:100B90004979B82696488A8649D502CD2A8457478E
:100BA00003A7BC66A644B3FBC13236D480626DD6BF
:100BB000815D30DE754DA71271B3D0710834B25724
:100BC0006DA85F33786FC1FA86297FC6B6827243FB
:100BD000EA41BDA530C84C9FC6B58D281A51EE63B9
:100BE000A874E74BD5006E0EC89095ACE210CAA869
:100BF00014348B55F3C40D370CBB05E8776ED9F66A
:100C0000166C378170F9605D679BF6FE85C700083A
:100C10009091D961716666B10960BC3B5C8DE675E7
:100C20000692EF45AB372E8331814AA6DD9B24B572
:100C3000170CC52807F14EC1B2E3267B413B4D8C12
:100C400040A9E4BF81843FDB7106B520440CA3308A
:100C500038F24648B4260909673194588BC2660CAD
:100C6000B04C6397327CFEC45113185BBFBD619FCB
:100C7000758532764D8D15EF0D8A5FE51C0CBEBA79
:100C80006DD93C53D2F201AC3C63F41C742FE5FAED
:100C9000CBC902D83D2D6059ED2F88BAA5D04E9D05
:100CA00029B55423A76E7AA920CE5A7FDB353B1095
:100CB0006605AC67F8B62DC446E01284CDD171B19B
:100CC0000BF889EB47A1B1A267C135286A50035AD6
:100CD00032165D7796E0403AEC599425848C1CCE10
:100CE0001B35872808BA9D5642DFD98171E60EBCB4
:100CF0009074A818400A510D959933CE815C9906DD
:100D0000902A45E130E5B70A83FCD6EA9D76E4BE39
:100D100069D83653AFA39761E5FDD9372914191067
:100D2000AA961735AA3E2B79E04E889692AB4EC212
:100D30007D2D8716232627A756488A5DE22F599FC7
:100D4000EF8B664752FC89EA36D5A786BA66A81F9C
:100D5000E16044046A7F7AF3D22D8065928F00644B
:100D600048403AF46088C5506D4BAD5FD74322C010
:100D70006AEA1230EE090EC81E4A035DF6F9548F76
:100D8000339D2250F77952D79FB38F009E10A51E36
:100D900030AA6FB1AF237FA2E441B5D62D8EEA868B
:100DA0007B41CD1A89D5710D08412693C3322E613E
:100DB0001A06E0AF9AA81F2E36EFA8AF663A4B2A64
:100DC0009B4269965987E104B3C7232903AA900C73
:100DD0001EFB741A81C99D3051826875D0CBC270D8
:100DE00005617D112451A4A29F1EC42AFCD1208E2E
:100DF000943DC0208E57F0BDF80A2795220751C3B5
:100E0000FE19FEF6F0DBEDFBA7C54CA5FB2D800817
:100E1000A79F1A4CF93B2A0795F3A7C7EA8D5344BD
:100E200000F393C1684BE615B74CAD503E798A404C
:100E30004975854BDFD68151358433DDF551099EE7
:100E40006A0EE19CD1B3CA9A0167525BC7C06ED5E6
:100E5000915335F3F7D8D63BF447EA6E3F45EF3070
:100E60001D39090E611B6CEBA56B688D4E868A19C6
:100E700070F1F00EBF5F86D2095D93283582F62AA5
:100E80005C353672495C23C6A3B51D194AC9CF909B
:100E9000163B4A4E246C9ACF905492956BDC1C14EE
:100EA000F8DE034C7BC69747E03561B4484CB53358
:100EB000E4B9EA2CE1F330CF0036FDE6E65A557D81
:100EC000E8D090764111E317151263749DF349172A
:100ED000E7545510DE9E5165EFCA5C5D9C9BD49D26
:100EE0004A44FFC88741417E41BD12C87C0025525B
:100EF0001393A4365855BB3A3435CD9DE3224C8E1E
:100F0000D58D078AF47B03238D86E342ED8716A0F7
:100F10002A29000F952C263165AAD219AE1C2AFD6C
:100F200047FE49AD1CAFF69A1466D42E838C771D0C
:100F30004D3064ACD0A3AE3D5060D05A5EB872ED77
:100F4000F00558A811F7B15F82394BCB335B0F1E08
:100F5000ED067A30708A7920357919FD8832F820CB
:100F600081B9BBFE711530EC697E168467F3D3201E
:100F7000999FEE56EBF562CE8BF5ECEBFF00F28617
:100F8000F282CA0A000011241FBECFEFD0E4DEBFF8
:100F9000CDBF14BE0FB6F894A8958091600088610B
:100FA00080936000109260000FBE11E0A0E0B1E0FD
:100FB000E6EDFBE700E00BBF02C007900D92AA32FE
:100FC000B107D9F722E0AAE2B1E001C01D92A83929
:100FD000B207E1F70E94891F0C94E93D0C940000D0
:100FE000CF93DF93CDB7DEB76C970FB6F894DEBF23
:100FF0000FBECDBF0E94761F6B017C019E01275F53
:101000003F4F398B288B80912601882309F4C7C66E
:101010000E94761FC61AD70AE80AF90AF894809146
:101020002601882351F08FEF8093260178940000E9
:10103000F894809126018111F9CF78940E94761F4F
:10104000A7019601260F371F481F591F2E8B3F8B74
:10105000488F598F81E08093260180914F0188232A
:1010600009F442C010924F018FEF8983AE014F5FA8
:101070005F4F7A010FE114E06DE67AE2C7010E944A
:10108000B4196C01892B81F1D60156968C9182FF9F
:10109000F3CF0E94761FF894F60137892689422FF4
:1010A0004B7F468B78949F938F937F936F931F9280
:1010B0003F9321701F922F9389811F928F931F93CB
:1010C0000F930E94E4362DB73EB7245F3F4F0FB613
:1010D000F8943EBF0FBE2DBF6DE67AE2C7010E94B5
:1010E000B4196C01892B81F680915001882329F174
:1010F000109250018FEF8983AE014F5F5F4F7A01ED
:101100000AE114E06FE77AE2C7010E94B419FC011A
:10111000892B99F0958D868D9813F4CFF894858D51
:10112000968D891709F433C778946FE77AE2C7017F
:101130000E94B419FC01892B69F780914901882329
:1011400011F1109249018FEF8983CE0101967C0144
:101150000BE014E06BE870E2C7010E94B41900973D
:1011600091F0DC0158962C912F3FA1F7F894FC01E7
:1011700026852111DDC578946BE870E2C7010E94D5
:10118000B419009771F780914E01882309F43FC08C
:1011900010924E018FEF8983AE014F5F5F4F7A014E
:1011A00006E014E06AE179E2C7010E94B4190097F1
:1011B00071F1DC011E962C911E9723FFF3CFF8945A
:1011C000FC012685277F268778949C01265E3F4F69
:1011D0003F932F9350968C918695869586951F9276
:1011E0008F9389811F928F931F930F930E94E436F0
:1011F000EDB7FEB738960FB6F894FEBF0FBEEDBF41
:101200006AE179E2C7010E94B419009791F68091D2
:101210005901882309F44AC0109259018FEF89833C
:101220009E012F5F3F4F79010CEF13E069E573E3F7
:10123000C7010E94B419FC01892BC1F1848D80FF84
:10124000F5CFF89494812581368147815489658949
:101250007689A789B08DD18CC28CB38C848D8E7F1A
:10126000848F7894BF92CF92DF92BF93AF937F9396
:101270006F935F934F933F932F939F9389811F9217
:101280008F931F930F930E94E4364DB75EB7405F74
:101290005F4F0FB6F8945EBF0FBE4DBF69E573E3B5
:1012A000C7010E94B419FC01892B41F680914D01C0
:1012B000882309F456C010924D018FEF8B87BE0131
:1012C000655F7F4F1B013CE0932E47E0842E6BE867
:1012D00075E2C1010E94B4195C01892B09F441C077
:1012E000D50159968C91599780FFF1CFF894F5016B
:1012F0004480558066807780818D8E7F818F789441
:1013000058968C91813009F478C308F456C3823022
:1013100009F413C38330D9F6CB8419821A829E0153
:101320002F5F3F4F42E061E0F501848995890E947B
:10133000F01409811A81102701271027F02FF67069
:10134000EF2E20E030E0B301A201C5010E94032688
:101350006BE875E2C1010E94B4195C01892B09F0A8
:10136000BFCF80915B01882301F110925B018FEF69
:101370008B879E01255F3F4F190119E0B12E8E0129
:101380000F5F1F4F82EFC82EDD24DA9406C0D7010D
:101390001E968C911E9780FD5FC366E279E3C101C2
:1013A0000E94B4197C01892B91F780915C018823FC
:1013B00009F463C010925C018FEF8B87FE013B96AE
:1013C0001F019E012F5F3F4F690165EF78E3C10167
:1013D0000E94B4197C01892B09F44FC0D7011E96D5
:1013E0008C9182FFF2CFF894F7014480558066809B
:1013F0007780B1881686118A789480859185A28538
:10140000B385481A590A6A0A7B0A87010E5E1F4F84
:10141000D701BB2099F056968C91F701E80FF11D8A
:10142000BFEFB78B108E118E8D5FF701868B8233E5
:1014300008F0CDC0BA94D701B110EDCF1F968C91B2
:10144000882309F41BC2813009F43DC4823009F4B9
:101450004BC5F701868990E0C2970CF4B6CF6B8537
:10146000C70142960E94F82365EF78E3C1010E940C
:10147000B4197C01892B09F0B1CF80914A018823EE
:10148000D9F010924A018FEF8F879E01215F3F4F65
:10149000790132E7932E44E7B42E06C0D601529666
:1014A0008C91529780FD4FC36AED71E2C7010E9493
:1014B000B4196C01892B91F780914B01882309F1B4
:1014C00010924B018FEF8F879E01215F3F4F790173
:1014D00007E0402EAE014F5F5F4F4A018FEA582E62
:1014E00098EA692E06C0D8011E968C911E9780FD41
:1014F0008CC36BEB71E2C7010E94B4198C01892B7C
:1015000091F780914C01882309F467C010924C0137
:101510008FEF8983FE0131967F016CE971E2C7018B
:101520000E94B4196C01892B09F457C0D6011E968C
:101530008C9180FFF2CF9980F894F60186858E7F9A
:1015400086877894C6010E941E248834910529F765
:10155000D6015396AC90B12CB4E1AB0EB11CAC0CDF
:10156000BD1CD6011C96ED91FC911D971D86850131
:1015700022E0AE01435F5F4F61E080810E940B1A61
:10158000D6011C96ED91FC911D9781E08E870E5F30
:101590001F4F22E0AE01425F5F4F61E080810E94F9
:1015A0000B1AF60183898C5F838B3601FAE46F0E88
:1015B000711CD3011C9112FD16C590E0C1970CF46B
:1015C000ACCF692DC6010F960E94F823A6CF6B857C
:1015D000C8010E94F823BA942ECFA8958091740177
:1015E000882329F080E480936000109274011091A8
:1015F0003502112309F46EC000912A0100FD12C0CA
:10160000153008F467C0D0907501BD2C8BEF8D0D9F
:101610008C3308F4EBC3EEE7BE1609F4CFC50160C6
:1016200000932A01412F50E06EE770E085E791E0DA
:101630000E94BA3D009739F00E7F00932A0185572A
:10164000914011E0180F01FD0CC0902F9260909313
:101650002A0183EA93E09F938F930E94E4360F90D0
:101660000F90D12ECC24CA9420E0ED2CF12C19C07F
:10167000822F90E0402F50E0481B590BB701680FB4
:10168000791F6B587E4F8B589E4F0E94D03D109211
:101690002601202F8FB7F89490913502191761F029
:1016A0008FBF10913502012F0D1911F78FB7F894E4
:1016B000909135021913F4CF009335028FBFF1E0FA
:1016C000CF1208C083EA93E09F938F930E94E43681
:1016D0000F900F900E94761F6B017C012E893F892D
:1016E000488D598D621B730B840B950B80903301D1
:1016F00090903401A0903501B09036013FEF831AED
:10170000930AA30AB30A8092330190923401A09203
:101710003501B092360140902F0150903001609019
:10172000310170903201460E571E681E791E40929C
:101730002F01509230016092310170923201611597
:10174000710541E08407910508F02EC39B01AC01AF
:101750000E941D3DDC01CB0181509F4FAF4FBF4F19
:10176000892F9A2FAB2FBB2740912B0150912C0131
:1017700060912D0170912E01840F951FA61FB71F38
:1017800084179507A607B70718F48FEF9FEFDC01C2
:1017900080932B0190932C01A0932D01B0932E01E7
:1017A0004091550150915601609157017091580137
:1017B0005C546B437B4F2F2DC416D506E606270BD2
:1017C00027FD21CCBF93AF939F938F937F926F920E
:1017D0005F924F92BF92AF929F928F9287E494E074
:1017E0009F938F930E94E4366DB77EB7625F7F4F01
:1017F0000FB6F8947EBF0FBE6DBF809155019091DA
:101800005601A0915701B0915801C816D906EA06B1
:10181000FB0698F48091510190915201A0915301DF
:10182000B09154010196A11DB11D80935101909377
:101830005201A0935301B0935401C0925501D0922C
:101840005601E0925701F092580110922B0110922C
:101850002C0110922D0110922E0110922F01109246
:101860003001109231011092320110923301109226
:1018700034011092350110923601C5CB82E3898381
:101880001A820E94761F4B015C01960142E061E0E2
:10189000F701848595850E94F0140E94761FDC0173
:1018A000CB0188199909AA09BB0981329340A10586
:1018B000B10508F02EC2998197FD67C2841895087A
:1018C000A608B708D70150968C918823C1F02FEF56
:1018D000280F41E050E002C0440F551F2A95E2F75F
:1018E000052E000C660B770B840E951EA61EB71EE8
:1018F00004C0B694A794979487948A95D2F7BFEFC3
:101900008B169104A104B10408F0A2C22A8130E030
:10191000220F331F892F90E0982F8827990F822B51
:10192000932BF7012689E20FF11D878A808F918F13
:101930002D5FD70156962C938CCDCB8481E0898383
:101940001A821B821C829E012F5F3F4F43E061E0A1
:10195000848995890E94F01469817A818B819C81A8
:101960000E944F3DBB27A92F982F872F9C01AD01C7
:10197000442755272A8B3B8B4C8B5D8B89821A829F
:101980009E012F5F3F4F42E061E0D50154968D915B
:101990009C9155970E94F0148A81982F9C7F8A8988
:1019A0008170E92EE82A0A891B892C893D89B301B7
:1019B000A201C5010E9403268ACCCB8419821A8217
:1019C0001B821C829E012F5F3F4F44E061E0F501C6
:1019D000848995890E94F01469817A818B819C8128
:1019E0000E944F3DF62FF770EF2E8B019C01B30143
:1019F000A201C5010E9403266ACC2B852A8B9982FD
:101A00001A821B821C829E012F5F3F4F44E061E0DF
:101A1000848995890E94F01469817A818B819C81E7
:101A20000E944F3D6B017C01BFE0B9831A829E0189
:101A30002F5F3F4F42E061E0F501848995890E9464
:101A4000F014970186013327CA88EA80B301A20106
:101A5000C5010E9403263BCCAB84F8012B2D1192CB
:101A60002A95E9F7C982980149E061E01C968D91B9
:101A70009C911D970E94F014D70153968C9190E091
:101A8000FC017496EE0DFF1D3B81232F207FE1F0BA
:101A9000203FD1F0D482D382D282D182F701E80FE5
:101AA000F91FD48AF70183898B5F838B803308F019
:101AB00005C2D7011E968C911E978E7F1E968C9321
:101AC000C7010E94922469CC2D81422F407F09F0EA
:101AD000BBC15F81452F407F11F0403FD9F648855B
:101AE0004039C1F649854F77942EB0E2B41790F291
:101AF000D701A80FB91F4A8154964C938C818183DA
:101B00008E818283852F90E03F71AC01440F551F79
:101B100042955295507F5427407F5427342B33836E
:101B2000880F991F880F991F80762F71822B8483CD
:101B3000D70153968C9153978B5F53968C93803338
:101B400008F4C2C1BCC1AF8450968D919C9151974D
:101B5000C09758F1B982D6011C96ED91FC911D9762
:101B60008601085E1F4F20E3AE014F5F5F4F61E0CB
:101B700080810E940B1A80E3F601878B808991890E
:101B8000C097918B808B6A2DC60143960E94F823E3
:101B9000D60150968D919C915197C09770F11092FB
:101BA000260181E080934A017FCCD6011C96ED91FD
:101BB000FC911D979B868E010F5F1F4F22E0AE01A7
:101BC000455F5F4F61E080810E940B1A89818F71B0
:101BD00090E0982F88272A81822BF6012685378569
:101BE0002817390710F497878687D60151969C935A
:101BF0008E935097C0970CF0ADCFF60182898E7FFF
:101C0000828BC6010E94DE244FCC2F84F401242D48
:101C100011922A95E9F75B861C8669825396AC90EF
:101C20005397B12C650134E1C30ED11CC00ED11EF7
:101C3000940147E061E01C968D919C911D970E9454
:101C4000F0149E01255F3F4F42E061E0D8011C96F1
:101C50008D919C911D970E94F0148C85B82FBF73B5
:101C60003B2E8074782EF801EA0DFB1D8A81848B4F
:101C70008B81F60181838C8182838D8183838E8128
:101C800084838F818583D80153968C9153978A5F83
:101C900053968C938F3208F0A0C1772031F0F80171
:101CA000818992890196928B818B332009F48FC1AF
:101CB000D8011E968C911E978E7F1E968C93C8011C
:101CC0000E94922416CC8FE789838EEF8A830E942C
:101CD000761F6A8B7B8B8C8B9D8B960142E060E03C
:101CE000F701848595850E94F0140E94761F4B01B0
:101CF0005C01DC01CB012A893B894C895D89821B0F
:101D0000930BA40BB50B81329340A105B10508F4E8
:101D1000ADC0D70156968C91F701E80FF11DBFEFCA
:101D2000B78B92E0908F118E8D5FF701868B91CBF0
:101D3000318D308F7894AC01415F5F4F5F934F934B
:101D40001F922F93FC0187891F928F9389811F9285
:101D50008F931F930F930E94E4362DB73EB7265FF3
:101D60003F4F0FB6F8943EBF0FBE2DBFF3C9288971
:101D70003989E217F30709F0FAC0809590E02A85C7
:101D800030E08217930709F450C1D70156968C9121
:101D9000F701E80FF11DBFEFB78B93E0C3CFCE8AF9
:101DA000DF8AE88EF98E56C96115710550E1850705
:101DB000910508F0EACC8B019C0101501F4F2F4F79
:101DC0003F4F5527432F322F212F0E941D3DDC010D
:101DD000CB0140912B0150912C0160912D0170910C
:101DE0002E01840F951FA61FB71FCACCC090760185
:101DF0008C2D807F803109F00ECC1D1508F46ACC43
:101E00008D2D90E0FC01EC58FE4F20812E3709F01B
:101E100002CCFC01EE58FE4F4F01FC01ED58FE4F85
:101E20009081D4018C91292F30E07901F82A6DEF4F
:101E30006D0D85E791E00E948C1FE816F90609F404
:101E4000BFC1B0907501E7CB403F09F023CE41CE32
:101E5000F7018689E80FF11D2FEF278B91E0908F16
:101E6000118E8D5FD70156968C93F3CA80EC8983CF
:101E70001A82960142E061E0D7011C968D919C91F7
:101E80001D970E94F01449812A81942F9227892F4F
:101E900082958F709827892F869586958927982F08
:101EA0009695892780FDD5C046FF15C1F701868923
:101EB000E80FF11D2FEF278B35E0C4C0912C6A2D60
:101EC000C7010F960E94F823BEE1B91508F087C23A
:101ED000F701818992890196928B818B109226015C
:101EE00081E080935B0159CAD7011C96ED91FC916A
:101EF0001D971481B281BA8B038140E06B2F702F44
:101F0000812F0E942F1B0E94761F4B015C01E0E194
:101F10008E0E911CA11CB11C0E94761F2B2D8616C3
:101F20009706A806290B27FFF7CFF89441E06A89A6
:101F3000702F812F0E942F1B0E94761F4B015C0186
:101F40007894D601EAE01D92EA95E9F7F4E8F9837E
:101F500023E22A8396014AE061E0D7011C968D9125
:101F60009C911D970E94F014FE01339685E091919B
:101F7000892728E030E005C0880F2150310909F495
:101F8000F6CE87FFF9CF880FBDE18B27F6CF5489B6
:101F9000658990892189328943898F5F858F7894FB
:101FA0006F935F934F933F932F939F9389811F92DA
:101FB0008F931F930F930E94E4366DB77EB7665FD1
:101FC0007F4F0FB6F8947EBF0FBE6DBF9BC81092B7
:101FD000260181E080934B018CCA622DC8010F96C7
:101FE0000E94F8235ACE0E94761F11FD4AC0F501C7
:101FF00022813381322723273227032E000C440B02
:10200000550BF601E45BFF4F208031804280538006
:10201000221633064406550608F442C01D7FF3011C
:102020001083D60153968C91C8CA898584FF19C044
:102030008B8187FD94C0F7018689E80FF11D2FEF92
:10204000278B34E0308F118E8D5FD70156968C939D
:1020500000CAF7018689E80FF11D2FEF278B93E067
:10206000FECED70156968C91F701E80FF11DBFEF18
:10207000B78B25E0208F118E8D5FD70156968C93FC
:10208000E8C9F601E05BFF4F208031804280538039
:10209000292F621573058405250927FFA8CFC1CF15
:1020A000F601E05BFF4F60837183828393833897EF
:1020B0000190F081E02D968990FF4FC0D601A55B7D
:1020C000BF4F6C91678B9A7F9460968BCF010E9473
:1020D000662B10E0A4CF84189508A608B708F7016E
:1020E00030893323C9F08FEF830F61E070E002C0C5
:1020F000660F771F8A95E2F7CB01092E000CAA0B19
:10210000BB0B880E991EAA1EBB1E04C0B694A794D2
:10211000979487943A95D2F77FEF87169104A1049C
:10212000B10408F041C0842F90E0AC01542F442743
:10213000550F550FF4E02F9FC0011124842B952BD0
:10214000D70156962C91F701E20FF11D878A808FF7
:10215000918F2D5FF701268B7CC910E060CF84182A
:102160009508A608B708B1E58B16B5E59B06A1044E
:10217000B10408F06DCE2C8130E0220F331F90E0C7
:10218000982F8827990F822B932BF7013689E30F1D
:10219000F11D2F8126952F73278B808F918F3D5FA7
:1021A000D70156963C9355C9D70156968C91F701A5
:1021B000E80FF11DBFEFB78B91E0B4CD11E051CA2C
:1021C000802F8D7F80932A0180910901C81205C15B
:1021D00081E08C0D8F70806180930901B7E78B16C9
:1021E000B1E09B0609F008F4C1C0E7E7F1E012EAAC
:1021F000212E13E0312EDC8ECDB6DEB68F010F5FBF
:102200001F4F2081222309F4E5C0F1018491281792
:1022100008F0E0C030E0220F331F220F331F220FDF
:10222000331FF901ED50FF4FE4914DB75EB764E005
:10223000E69F4019510911240FB6F8945EBF0FBEF6
:102240004DBF8DB79EB70196F901EB50FF4F4491FA
:10225000F901EA50FF4F65917491FB01640F711D04
:10226000AC01DB8ACA8A9B8F8A8FE617F70709F4CD
:1022700082C08016910608F46EC0A491A53028F1A2
:10228000A73009F068C02801BFEF4B1A5B0AD801DC
:10229000AC9082010A0D111D8016910608F45BC0F6
:1022A000B12CC12CD12CDA01AD92BD92CD92DC9231
:1022B0001397612C712C14964D925D926D927C92C5
:1022C0001797485F5F4F3196D0CF7A0184E0E80ED0
:1022D000F11C68019FEFC91AD90AD8011C91912FEE
:1022E0009F77492E512C612C712C012F00760036DE
:1022F000A9F117FF3EC086010F5F1F4FD80111974C
:102300008C91440C551C661C771C440C551C661C97
:10231000771C440C551C661C771C440C551C661C11
:10232000771C440C551C661C771C440C551C661C01
:10233000771C440C551C661C771C982F9F77492AE4
:1023400087FDDACFDA014D925D926D927C92139700
:10235000A70131968ACF87E00E94AC3CB0EE4B2AB1
:1023600055245A94652C762CC4CFDC8CCC24C39491
:102370007BC98601E7CFCA88DB888A8D9B8D409117
:102380002701442331F0F901EC50FF4FE491E0FFC5
:1023900011C028503F4FF90125913491F901099559
:1023A0000FB6F894DEBE0FBECDBE08151905E8F6CF
:1023B000F80122CF809128011F928F93E6E5F4E087
:1023C000FF93EF930E94E4360FB6F894DEBE0FBE83
:1023D000CDBEEBCF85E00E94AC3C1D2D3AC9F1E0AB
:1023E000F91508F47BCD65CBCF93DF93EC0161E168
:1023F00072E188810E94522CFC018C819D81AE810A
:10240000BF81892B8A2B8B2B51F420E0F89494A563
:102410009D7F922B94A77894DF91CF91089522E02D
:10242000F5CF0F931F93CF93DF938C014DE250E0D4
:1024300061E172E1FC0180810E94232CEC01F80132
:10244000848518160CF041C064E06CA7F801848103
:102450000E94241E6A8F7B8F8C8F60E0F80180853C
:102460000E94241E6D8F7E8F8F8F80E090E0A0E011
:10247000B0EC88A399A3AAA3BBA3F8018089918992
:10248000A289B3898E8B9F8BA88FB98F6BE070E088
:10249000CE0184960E94B42C8E899F89A88DB98D17
:1024A0008997A105B10548F08BE193E19B838A836D
:1024B000DF91CF911F910F9108958CA580618CA71A
:1024C000DF91CF911F910F91089560E0BECFCF9320
:1024D000DF93EC0161E172E188810E94522CFC01E2
:1024E0008C819D81AE81BF81F89446855785608936
:1024F0007189452B462B472B79F484839583A683DA
:10250000B783828B938BA48BB58B84A5877F84A79D
:102510007894DF91CF91089586E10E94AC3C0F93AF
:102520001F93CF93DF938C0161E172E1DC018C9109
:102530000E94522CEC010E94CE2CFC01D801149672
:102540004D915D916D917C91179742835383648384
:10255000758318968D919C91199791878087892B07
:1025600009F466C0D8011C968D919C911D979783A4
:1025700086831286F8948CA5282F217081FB9927D9
:1025800090F9291729F091E0892792859160928727
:102590004E855F8568897989452B462B472B59F5F0
:1025A00083FD19C08CA7118210828CA19DA1892B5B
:1025B000A9F1AEA1BFA1ED93FC93FFA3EEA3CE01C1
:1025C0000E941036CE010E94473A7894DF91CF9155
:1025D0001F910F910895809145019091460191833B
:1025E0008083F0934601E09345017894DF91CF9189
:1025F0001F910F9108958CA7118210828CA19DA12B
:10260000892B89F0AEA1BFA1ED93FC93FFA3EEA3AC
:102610007894DF91CF911F910F910895FFA3EEA3BE
:10262000FDA3ECA3CCCFFFA3EEA3FDA3ECA3CDCFE2
:1026300087E10E94AC3CCF92DF92EF92FF920F9322
:102640001F93CF93DF93EC01EA8DFB8D8C8D8083FC
:102650000E94761F0E891F89288D398D6B017C01A0
:10266000C00ED11EE21EF31E8E859F85A889B989F2
:102670000197A109B1098E879F87A88BB98B80FF2D
:102680000EC0CC82DD82EE82FF8281E0DF91CF91AD
:102690001F910F91FF90EF90DF90CF900895892BBD
:1026A0008A2B8B2B59F1488559856A857B858A89C8
:1026B0009B89AC89BD89840F951FA61FB71F8A8B84
:1026C0009B8BAC8BBD8B0C851D85012E000C220BCA
:1026D000330B400F511F621F731F488759876A874A
:1026E0007B872B2F8C159D05AE052F0927FDC9CFA4
:1026F0008C839D83AE83BF8381E0C8CFCE010E94CF
:102700001036811102C080E0C1CF4C815D816E81A5
:102710007F81972F4C155D056E059F0997FFB6CFFA
:102720004C195D096E097F094038514C6F4F7F4F3E
:102730000CF0A7CF88E10E94AC3C46E050E06FEC83
:1027400073E1FC0180810C94232CCF92DF92FF92E5
:102750000F931F93CF93DF93EC016FEC73E18C81A8
:102760000E94522C6C01F8840F2D10E0A8014D5FDF
:102770005F4F65EA73E188810E94232CFC01D182BE
:10278000C082F2826C857D85A8010396DF91CF918E
:102790001F910F91FF90DF90CF900C94C73DFF9257
:1027A0000F931F93CF93DF938C0146E050E06FECC3
:1027B00073E1FC0180810E94232CEC01F801F0847C
:1027C00061E0F11060E0F80184810E94241E6A83B8
:1027D0007B838C838D81F11009C091E0892B8D83DF
:1027E000DF91CF911F910F91FF90089599E0892B70
:1027F0008D83DF91CF911F910F91FF9008950F93DB
:102800001F93CF93DF938C016FE77AE2FC01808105
:102810000E94522CEC010E94F539909100018A8DA2
:10282000981303C08FEF80930001F8018481958194
:10283000A681B781888B998BAA8BBB8B8C839D8358
:10284000AE83BF8380859185A285B3858C879D8764
:10285000AE87BF8784858E8F91E0980F9D8F4089CA
:10286000518962897389488759876A877B87248958
:1028700035893F8B2E8B208D318D398F288F948D0C
:102880009C8F811105C0DF91CF911F910F91089509
:10289000CE01DF91CF911F910F910C94473A8BE1BC
:1028A0000E94AC3C8F929F92AF92BF92FF920F9387
:1028B0001F93CF93DF93EC016FEC73E188810E944B
:1028C000522C8C01F88483E08F1508F484C0F80141
:1028D0008581867009F07FC08C849D84AE84BF841E
:1028E0008C819D81AE81BF81892B8A2B8B2B09F036
:1028F00074C0EAE6F4E0A591B49111968C9184FD40
:1029000004C060E08CE00E94241E60E08FE00E9422
:10291000241E60E08DE00E94241E60E08EE00E9494
:10292000F61A80E58CBD1DBC8114F2E19F06FAE722
:10293000AF06B10408F041C0811489E098068DE328
:10294000A806B10418F5E0E88E16E4E89E06EEE16C
:10295000AE06B104C0F5F0E48F16F2E49F06FFE086
:10296000AF06B10468F580E2881681EA980687E030
:10297000A806B10458F590E0E0E98E16E0ED9E0659
:10298000E3E0AE06B10428F583E002C090E080E009
:10299000CF2DCC0FCC0FC065C82BF801C08391831D
:1029A000858184608583DF91CF911F910F91FF9086
:1029B000BF90AF909F908F90089591E080E0E8CF16
:1029C00090E081E0E5CF91E081E0E2CF91E082E02C
:1029D000DFCF82E0DDCF0E944F148EE20E94AC3C3C
:1029E0006F927F928F929F92AF92BF92CF92DF921F
:1029F000EF92FF920F931F93CF93DF934C01E62E3C
:102A0000142F6901DC0115967C901597872D86702F
:102A100009F451C071FC39C0F401908181819CBDE1
:102A20008DBDF72DF1706F2E70FCC8C0EE2009F43B
:102A30009CC08FEF810F112351F0F60190819EBD54
:102A40000DB407FEFDCF9EB591938150B8F7662077
:102A500091F1072D069506950695402F40954170FA
:102A6000D40112966D917D918C91DF91CF911F9140
:102A70000F91FF90EF90DF90CF90BF90AF909F901D
:102A80008F907F906F900C942F1BED91FC9141855E
:102A900042706681778180850E942F1BB72DB170AF
:102AA0006B2E70FC17C0D401CD91DC91AA24AA949E
:102AB000A10E111126C0DF91CF911F910F91FF90B0
:102AC000EF90DF90CF90BF90AF909F908F907F90CE
:102AD0006F900895072D069506950695402F417035
:102AE000F4016281738184810E942F1BD401CD91F6
:102AF000DC91AA24AA94A10E112309F4AECF662476
:102B00006394B12C8FEFA81AB80AAC0CBD1CD60187
:102B1000FC9008E010E0898580FF35C0EE81FF81E0
:102B2000888580834F2D40786B817C818D810E94C8
:102B30002F1BFF0CEE81FF8188858083110FE881B8
:102B4000F98190818A81892391E009F490E0192B21
:102B5000015009F7EE2011F0F6011083FFEFCF1AB4
:102B6000DF0AAC14BD0499F672CFF6019601210F6D
:102B7000311D2E173F0709F46ACF81918EBD0DB428
:102B800007FEFDCFF6CF4F2D40786B817C818D8184
:102B90000E942F1BFF0CEE81FF8188858083110F1F
:102BA000E881F98190818A81892391E009F490E09C
:102BB000192BEE81FF8188858083CACF73FA442761
:102BC00040F9F4016281738184810E942F1B662485
:102BD00063942CCFCF93DF93EC016FEC73E188818A
:102BE0000E94522C288539854C8160E0DF91CF917D
:102BF0000C94F014FF920F931F93CF93DF93EC018B
:102C000018816FEC73E1812F0E94522C0C81F884A3
:102C1000C9852F2D3C2F402F61E00E94F014CF93E7
:102C2000FF921F920F931F921F9385E194E09F9351
:102C30008F930E94E4368DB79EB708960FB6F8942E
:102C40009EBF0FBE8DBFDF91CF911F910F91FF905F
:102C50000895AF92BF92DF92EF92FF920F931F936E
:102C6000CF93DF93FC01A485B58596854785508970
:102C7000E18822893389F488A588B6887789008D10
:102C8000118DD28C808586279C9384FD20C085FD84
:102C900022C086FD24C087FD26C09C93862F829586
:102CA000807F808768279C9364FD2AC065FD25C0CE
:102CB00066FD1CC067FD1EC09C93DF91CF911F91E4
:102CC0000F91FF90EF90DF90BF90AF900895EA01D1
:102CD000E88285FFDECFE901F88286FFDCCFE501DF
:102CE000788387FFDACFE801D882D7CFF5017083E8
:102CF00067FFE2CFE801D882DFCFE901F882D8CFC1
:102D0000FA01E082D3CF5F926F927F928F929F926F
:102D1000AF92BF92CF92DF92EF92FF920F931F93E9
:102D2000CF93DF938C01FC01C080D180E280F380DF
:102D300084809580A680B78066246A94660E662398
:102D400001F1EA01712CFFEF6F1A7F0A640E751E04
:102D500059900E94761FDC01CB018C199D09AE09A8
:102D6000BF0988159905AA05BB0598F3652DC8010B
:102D70000E9429160E94761F6B017C01C615D7059B
:102D800039F7F801C082D182E282F382DF91CF91DC
:102D90001F910F91FF90EF90DF90CF90BF90AF9079
:102DA0009F908F907F906F905F900895EF92FF9229
:102DB0000F931F93CF93DF938C0161EC70E3FC01C1
:102DC00080810E94522C7C018FE090E00E94C136ED
:102DD000EC0188E893E19E878D87F8018089880F50
:102DE0008C8761E084810E94F61A6E837F838887D6
:102DF00061E0F80184810E94241E688379838A83BC
:102E000061E0F80180850E94F61A69877A878B87CE
:102E100061E0F80180850E94241E6B837C838D8392
:102E2000F701D283C183838181608383DF91CF9156
:102E30001F910F91FF90EF9008950F931F93CF93E1
:102E4000DF93EC0165E577E188810E94522C8C01CB
:102E5000FC0161857285838541E00E942F1B4885B6
:102E600059856C81C801DF91CF911F910F910C940E
:102E700083160F931F93CF93DF93EC0165E577E102
:102E800088810E94522C8C01FC01618572858385AA
:102E900040E00E942F1B488559856C81C801DF9155
:102EA000CF911F910F910C948316CF92DF92EF92E6
:102EB000FF920F931F93CF93DF93EC014BE150E010
:102EC00065E577E188810E94232C8C0160E08C818C
:102ED0000E94241EF80161877287838760E08885DD
:102EE0000E94241EF80164877587868760E08C85C0
:102EF0000E94241EF8016787708B818B60E08889AF
:102F00000E94241EF801628B738B848B60E08C8995
:102F10000E94241EF801658B768B878B60E0888D7C
:102F20000E94241EF801608F718F828FF8940E9496
:102F3000761F6B017C0160E0C8010E9429160E9487
:102F4000761F7894DC01CB018C199D09AE09BF096D
:102F5000CC8CDD8CEE8CFF8C8C159D05AE05BF05F1
:102F600048F4C81AD90AEA0AFB0AF801C482D582D1
:102F7000E682F782DF91CF911F910F91FF90EF9042
:102F8000DF90CF900895DF92EF92FF920F931F93FF
:102F9000CF93DF93EC01D88883E08D15B0F16FEC0F
:102FA00073E188810E94522C7C018AE090E00E94AB
:102FB000C1368C0161E08C810E94F61AF8016083B1
:102FC0007183828360E088850E94241EF8016383F8
:102FD0007483858360E08C850E94241EF8016683DB
:102FE00077838087D186F7018581982F967081F449
:102FF000F7011183008382608583DF91CF911F9158
:103000000F91FF90EF90DF9008958BE10E94AC3C10
:103010000E944F14CF92DF92EF92FF92CF93DF93F3
:10302000EC010E94761F6B017C019E01A0E8BEE3CB
:103030000E94563D20E432E44FE050E00E942D3DD6
:10304000C20ED31EE12CF12C0E94761F6C157D055B
:103050008E059F05C8F3DF91CF91FF90EF90DF9031
:10306000CF9008950F931F93CF93DF93EC01062F1A
:1030700018E01DC06B817C818D8140E00E943E1B69
:10308000000F8D859E850E940A186E817F8188853C
:1030900041E00E94E01A8D859E850E940A18688191
:1030A00079818A8140E00E943E1B115049F007FF60
:1030B000E1CF69857A858B8541E00E94E01AE0CFF7
:1030C00069857A858B8541E00E94E01A8D859E8511
:1030D0000E940A186E817F81888541E00E94E01A73
:1030E000E985FA8510818B8518238D859E850E9440
:1030F0000A18688179818A8140E00E943E1B6985B7
:103100007A858B8541E00E94E01A111105C0DF919C
:10311000CF911F910F91089585E20E94AC3C4F9290
:103120005F926F927F928F929F92AF92BF92CF9257
:10313000DF92EF92FF920F931F93CF93DF938C0157
:10314000562E3A01FC0180809180A280B380C48019
:10315000D580E680F780EA012196FA014080642D4F
:10316000607F0E944C340E94761FDC01CB018819DD
:103170009909AA09BB098C159D05AE05BF0598F3F1
:10318000642D6295607FC8010E944C340E94761FB6
:103190006B017C01F80180849184A284B384F1E006
:1031A0005F1639F15A945A94852D90E00296680E74
:1031B000791E5990652D607FC8010E944C340E9491
:1031C000761FDC01CB018C199D09AE09BF0988155A
:1031D0009905AA05BB0598F3652D6295607FC80126
:1031E0000E944C340E94761F6B017C01C615D705E6
:1031F00001F7F801C082D182E282F382DF91CF91A0
:103200001F910F91FF90EF90DF90CF90BF90AF9004
:103210009F908F907F906F905F904F9008950F9345
:103220001F93CF93DF938C0180913F0190914001D8
:10323000892B09F04BC060913E0170E0623071054E
:103240002CF482E080933E0162E070E0E0913A016C
:10325000F0913B014DB75EB741505F4F44275A95FF
:103260009F01C0E0D0E0C901860F971F481759079A
:1032700030F121969C01C115A4E0DA07A1F78E1B5D
:103280009F0B0E94C136D0934001C0933F019093A1
:103290003D0180933C010E946A2CF801808191815C
:1032A000A281B3818093410190934201A093430195
:1032B000B0934401DF91CF911F910F910895209712
:1032C00011F0C901DCCF80E10E94AC3C8DE00E948E
:1032D000AC3CCF932091380130913901232B91F4EC
:1032E000FC01C0818C2F90E0880F991F880F991FD7
:1032F0000E94C1369093390180933801C093370101
:10330000CF9108958AE00E94AC3C80913F0190915A
:1033100040019F938F9321E030912701311101C02B
:1033200020E01F922F93209144012F93209143017D
:103330002F93209142012F93209141012F9321E05F
:10334000892B09F420E01F922F9388E394E09F9348
:103350008F930E94E4368DB79EB70C960FB6F89403
:103360009EBF0FBE8DBF0895CF93DF93EC01988170
:1033700040913701A0913801B09139010BC0FD0196
:1033800084E0989FE00DF11D1124208131812617E2
:10339000370741F09F5F941790F380E090E0DF9152
:1033A000CF910895988382819381DF91CF91089581
:1033B000CF92DF92EF92FF926B017C0109C00E94D5
:1033C000761F292F6C157D058E052F0927FF09C053
:1033D0008091BC0087FFF3CFFF90EF90DF90CF90FC
:1033E000089580E30E94AC3C24EA2093BC000E9434
:1033F000D8198091B90090E0A0E0B0E0803191054B
:10340000A105B10521F00897A105B10509F40895BA
:103410008FE20E94AC3C7F928F929F92AF92BF92BC
:10342000CF92DF92EF92FF920F931F93CF93DF9390
:10343000782EC62F942EB52E822E0E94761F6B01F9
:103440007C0120E8C20E28E3D21E21E0E21EF11C1E
:10345000C701B6010E94F4197092BB0084E8809302
:10346000BC00C701B6010E94D819AA24AA94AC0EC8
:10347000CC23B1F0C92DDB2DB12C8FEFA81AB80ADF
:10348000AC0EBD1E94E8992E89918093BB0090925A
:10349000BC00C701B6010E94D819AC16BD06A1F741
:1034A000C701B6010E94F419872D81608093BB008B
:1034B00084E88093BC00C701B6010E94D819DFEFF1
:1034C000D80D882009F15801CD2F84EC982ECC23FB
:1034D00069F09092BC00C701B6010E94D819809192
:1034E000BB00F50181935F01C15099F7F801ED0F21
:1034F000F11DEF0184E88093BC00C701B6010E9472
:10350000D8198091BB00888384E98093BC00DF9147
:10351000CF911F910F91FF90EF90DF90CF90BF90D0
:10352000AF909F908F907F900895BF92CF92DF923F
:10353000EF92FF920F931F93CF93DF93D82FC62F55
:10354000B42E152F0E94761F6B017C0120E8C20E5D
:1035500028E3D21E21E0E21EF11CC701B6010E9441
:10356000F419D093BB0084E88093BC00C701B60176
:103570000E94D8190FEF0C0FCC23A9F0CB2DD12F1F
:1035800010E00F5F1F4F0C0F1D1F84E8B82E8991AC
:103590008093BB00B092BC00C701B6010E94D8194D
:1035A000C017D107A1F784E98093BC00DF91CF91C8
:1035B0001F910F91FF90EF90DF90CF90BF900895F3
:1035C000FB012FB7F8949281141644F4982B809540
:1035D00092839181892381832FBF089580959823B9
:1035E00092839181892381832FBF08958032A0F532
:1035F00067FD32C0E82FE695E695E695F0E0EE0F20
:10360000FF1FE859FB4FA591B491109729F18770DE
:1036100021E030E0A90102C0440F551F8A95E2F76E
:10362000CA014FB7F89412963C911297662381F025
:10363000382B282F209512963C93129711963C9187
:103640001197232311962C9311974FBFBD01089515
:10365000282F20953223EFCF8BE20E94AC3CFB0158
:103660002FB7F8949281411105C0809589238283F8
:103670002FBF0895892B82832FBF0895FB012FB799
:10368000F8949281411109C0382F30959323928389
:103690009181892B81832FBF0895982B92839181EB
:1036A000892B81832FBF0895CF92DF92EF92CF9322
:1036B000DF93EC0161E088859985AA85BB85892B1C
:1036C0008A2B8B2B09F460E08C810E94241E6B01F5
:1036D000E82E44E250E064E57BE188810E94232CDF
:1036E000FC01C48AD58AE68A21E0488559856A8525
:1036F0007B85452B462B472B09F420E04C855D85C7
:103700006E857F85452B462B472BB1F430E0232B6C
:10371000FC0123A3488959896A897B89478B508F8B
:10372000618F728F6AE070E04F96DF91CF91EF90DA
:10373000DF90CF900C94B42C30E1E9CFCF93DF939E
:10374000EC0164E57BE188810E94522CF894FC0135
:10375000278D30A1232B69F44C815D816E817F819F
:10376000FC01438F548F658F768F7894DF91CF91D2
:10377000089584E10E94AC3C8F929F92AF92BF92D9
:10378000CF92DF92EF92FF921F93CF93DF93EC01E2
:10379000EF8CF8A0E114F10409F4F0C0F701808186
:1037A000918198A38F8F86809780A084B18411E047
:1037B00081149104A104B10409F4A1C06C897D892C
:1037C0008E89412F0E942F1B8091450190914601C7
:1037D000F70191838083F0924601E09245018114C4
:1037E0009104A104B104E9F08B8D9C8DAD8DBE8D4B
:1037F00088169906AA06BB06A0F44F89588D698DD4
:103800007A8D411551056105710509F45BC08C8104
:103810009D81AE81BF81480F591F6A1F7B1F1660B3
:1038200022C08BA131E081149104A104B10409F0FC
:1038300068C084FB992790F921E09227391709F491
:1038400043C04F89588D698D7A8D411551056105A9
:103850007105D1F18C819D81AE81BF81480F591FC7
:103860006A1F7B1F1460EF8DF8A1309709F077C0B5
:103870002BA1488B598B6A8B7B8B2071212B2BA31F
:1038800011FF5FC0880D991DAA1DBB1D12FD52C0FE
:1038900023EE31E33B832A838C839D83AE83BF83F6
:1038A00088869986AA86BB868B8D9C8DAD8DBE8DB4
:1038B00088199909AA09BB098C879D87AE87BF879C
:1038C00081E011C012608BA1EF8DF8A13097D9F47F
:1038D000188A198A1A8A1B8A8071812B8BA3812FDF
:1038E000827011FD34C0DF91CF911F91FF90EF9056
:1038F000DF90CF90BF90AF909F908F90089510E091
:103900005DCF30E096CF4281538164817581488BD1
:10391000598B6A8B7B8B8071912F9460892B8BA341
:1039200011FF0FC08C819D81AE81BF81880D991DD3
:10393000AA1DBB1D2B2F84179507A607270B27FD54
:10394000A7CF4C835D836E837F8381E0CCCF40E043
:1039500050E0BA018C819D81AE81BF8193CFC2803E
:10396000D380E480F580872F4C155D056E058F09A7
:1039700087FD07C08BA1B701A601C9CF85E10E94D1
:10398000AC3C83E10E94AC3C8EE10E94AC3C0F93C6
:103990001F93CF93DF93FC01A189B2898D919C91F4
:1039A0001197928B818B16968D919C911797C0855C
:1039B000D185228521113FC02FB7F894AC0155273E
:1039C000598348832FBF20914501309146011196BC
:1039D0003C932E93B0934601A0934501A189B289EF
:1039E000109759F5278530898217930741F0838511
:1039F0009485A585B6850097A105B10531F480E0D1
:103A0000DF91CF911F910F91089544815581668177
:103A10007781840F951FA61FB71F84839583A68384
:103A2000B78384EC9CE19383828381E0DF91CF9123
:103A30001F910F9108958883C6CF12964D915D9185
:103A40006D917C911597278530898217930741F0F6
:103A500083859485A585B6850097A105B10551F4A8
:103A6000448355836683778381E0DF91CF911F91F3
:103A70000F9108950481158126813781800F911F50
:103A8000A21FB31F2B2F84179507A607270B27FF0D
:103A9000E7CF8DE10E94AC3CEF92FF920F931F9312
:103AA000CF93DF937C0166EC7DE1DC018C910E9479
:103AB000522C8C010E94CE2CEC01F701848195815F
:103AC000A681B7818A839B83AC83BD8380859185E2
:103AD0009F838E83F89419821882D80151968D9114
:103AE0009C915297892BB9F15396ED91FC91549783
:103AF000D183C0835496DC93CE93539780E090E0BB
:103B00007894892B39F4DF91CF911F910F91FF9019
:103B1000EF900895C8010E94F539D80112968D9151
:103B20009C911397845C9C41F1F08A819B81AC81CC
:103B3000BD8127EC3CE1F8013383228384839583A4
:103B4000A683B783C801DF91CF911F910F91FF909A
:103B5000EF900C94473AF801D48BC38BD28BC18B76
:103B600081E090E0CDCF8A819B81AC81BD81F8015D
:103B70004481558166817781272F481759076A0745
:103B80002B0B27FFD6CF8DE10E94AC3CCF92DF926A
:103B9000EF92CF93DF93EC01488559856A857B8549
:103BA0002C858C810E94E22C6B01E82E45E150E0CF
:103BB00066EC7DE188810E94232CFC01C086D186C1
:103BC000E28688899989908B87878C899D89AE89BF
:103BD000BF8983879487A587B68787EC9CE1938309
:103BE000828368E070E0CF014196DF91CF91EF9042
:103BF000DF90CF900C94B42CB0990FC08091470106
:103C0000909148010196109206011092050190933F
:103C100008018093070181E0089581E086BB8091CF
:103C20004701909148010196909348018093470184
:103C300020E030E8309306012093050190930801BD
:103C40008093070181E00895803278F5E82FE695AA
:103C5000E695E695F0E0EE0FFF1FE859FB4FA591C2
:103C6000B491109711F1877021E030E0A90102C0F2
:103C7000440F551F8A95E2F7CA013FB7F894129690
:103C80002C91129761110FC04095242312962C930A
:103C9000129711962C911197282B11962C9311970E
:103CA0003FBFBD010895242BF1CF8CE20E94AC3CB4
:103CB0001F920F920FB60F9211240BB60F92EF9234
:103CC000FF920F931F932F933F934F935F936F93A5
:103CD0007F938F939F93AF93BF93CF93DF93EF9394
:103CE000FF930DC07A0180918400909185008E1918
:103CF0009F0997FD7CC07894B2999AC0F894C091BE
:103D00002201D0912301EA81FB81309709F0ADC0F7
:103D1000EA8DFB8D2C8D20838E859F85019709F47C
:103D2000C1C09F878E8788859985AA85BB854C8170
:103D30005D816E817F81480F591F6A1F7B1F4C83F5
:103D40005D836E837F8320832CA525FF0EC00C85A9
:103D50001D85012E000C220B330B800F911FA21F1B
:103D6000B31F88879987AA87BB87E881F981048177
:103D7000158126813781872F401751076207830BF2
:103D800087FDB0CF7801F0932301E0932201A09149
:103D90002401B091250114960D911D912D913C9116
:103DA0001797872F401751076207830B87FFFD0185
:103DB000DF010190F081E02D04811581268137819A
:103DC000872F401751076207830B87FFF1CFF983D5
:103DD000E883CD93DC93D0932501C0932401809197
:103DE0008400909185008E199F0997FF84CF863AB1
:103DF0009F4F0CF06AC0F0928900E0928800FF911A
:103E0000EF91DF91CF91BF91AF919F918F917F9172
:103E10006F915F914F913F912F911F910F91FF9063
:103E2000EF900F900BBE0F900FBE0F901F90189544
:103E3000F89480918400909185009701281B390B9C
:103E40002038314CDCF12091260127FF43C09C0132
:103E5000205C304E30938B0020938A0024E026BBF8
:103E600090938900809388003ECFCE0109954C81C4
:103E70005D816E817F81811178CFE881F981E48055
:103E8000F580F0932301E093220180912401909129
:103E90002501C817D90709F026CFF0932501E09333
:103EA000240121CFCE010E941036EA8DFB8D9C8D1E
:103EB00090834C815D816E817F81DDCF20912701D0
:103EC0002111C1CF8AE20E94AC3C7894B299B0CF64
:103ED000F89409CF9C012854344F30938B002093E1
:103EE0008A0024E026BB7C01F39485CF2FB7F89499
:103EF0006091840070918500809147019091480104
:103F0000B09902C02FBF08952FBF7F3FE1F3019604
:103F1000089578940E94C53A2FEF260F6623C1F0CA
:103F2000FC018FEF9FEF31918327082E8295807FD0
:103F30008025092E982F82958F70082686959827C0
:103F40008927880F880F880F8025215060F70895F2
:103F50008FEF9FEF08956F927F928F929F92AF9213
:103F6000BF92CF92DF92EF92FF920F931F93FC01CB
:103F700083818F9382818F93848135014601680EFE
:103F8000711C811C911CD401C301BF93AF939F93FB
:103F90006F9281818F9380818F931F930F93FF92F4
:103FA000EF925F934F933F932F931F926F9388EEFF
:103FB00093E09F938F930E94E4368DB79EB744960B
:103FC0000FB6F8949EBF0FBE8DBF1F910F91FF904B
:103FD000EF90DF90CF90BF90AF909F908F907F90A9
:103FE0006F900895CF93DF93EC016A8D662309F4F7
:103FF00053C0FC0150E031E020E0A38DB48D4C9122
:10400000958D942309F0532B2F5F330F339626138E
:10401000F4CF2C85922F952729F08D8585278095C3
:104020009823D9F4888D5D8787FD03C0815070F196
:10403000888F4C815D816E817F8188859985AA8575
:10404000BB85840F951FA61FB71F8C839D83AE83EE
:10405000BF8381E0DF91CF910895982F9095292318
:104060008523822B8C879E859830E0F621E0290FEE
:104070002E87FE01E90FF11D87871092260181E04E
:10408000809349018FEF888F5D87D3CF10922601EF
:1040900091E090934901CCCF50E0BBCF0F931F9399
:1040A000CF93DF938C016BE870E2FC0180810E946A
:1040B000522CEC010E94F539F80184819581A6818A
:1040C000B7818C839D83AE83BF8340855185628594
:1040D0007385488759876A877B8780898D878C8716
:1040E0001E861F8A8EEF888F8485898F87FD10C07A
:1040F000452B462B472B29F4DF91CF911F910F9130
:104100000895CE01DF91CF911F910F910C94473A02
:104110008FE10E94AC3CCF93FC01C481C930B8F45C
:104120004C2F50E09A01220F331F420F531F455E60
:104130005F4F6BE870E2FC0180810E94232CFC0140
:10414000C28F22EF3FE133832283CF91089581E232
:104150000E94AC3C0F931F93CF93DF938C016BE8CD
:1041600070E2DC018C910E94522CFC01D801149663
:104170009C91828D9817B8F4292F30E0E901CC0F7B
:10418000DD1F2C0F3D1FEF01C20FD31FF801648507
:1041900080850E94F61A6B8F7C8F8D8FDF91CF9177
:1041A0001F910F91089580E20E94AC3CFC01448174
:1041B000558166817781208580810C94E22CFC01F9
:1041C000868580FF06C0218932892F5F3F4F328B61
:1041D000218B816086871092260181E080934C01BB
:1041E000448155816681778180859185A285B385DB
:1041F000840F951FA61FB71F84839583A683B7835B
:1042000081E00895FC0196859160968710922601C1
:1042100081E080934B0180E00895FC0192899160D8
:10422000928B1092260181E080934A0180E00895EC
:104230000F931F93CF93DF93FC01C081D181128133
:1042400003816CE971E28C2F0E94522CFC01E05B2F
:10425000FF4F23812F9322812F9321812F93208140
:104260002F933697808182FB882780F91F928F9346
:104270000F931F93DF93CF938DEE93E09F938F93D4
:104280000E94E4368DB79EB70C960FB6F8949EBF89
:104290000FBE8DBFDF91CF911F910F9108950F93A6
:1042A0001F93CF93DF938C016CE971E2DC018C9159
:1042B0000E94522CEC01F80180859185A285B3857E
:1042C000FE01E45BFF4F80839183A283B383892B3C
:1042D0008A2B8B2B59F4349711821082C65BDF4FE7
:1042E0001882DF91CF911F910F910895F801848179
:1042F0009581A681B781FE01E05BFF4F80839183AA
:10430000A283B3836DE67AE2D8011C968C910E9459
:10431000522CFE01E85BFF4F918380833396D801D6
:1043200050968C918083C65BDF4F86E08883DF9157
:10433000CF911F910F9108950F931F93CF93DF9308
:104340008C0144E550E06CE971E2FC0180810E943F
:10435000232CEC018FED90E29B838A8361EC70E368
:10436000F80184810E94522C9D878C87DF91CF9128
:104370001F910F9108950F931F93CF93DF938C019B
:1043800048E450E06BEB71E2FC0180810E94232C39
:10439000EC0182E091E29B838A836FEC73E1F80188
:1043A00084810E94522C9D878C87DF91CF911F9131
:1043B0000F9108950F931F93CF93DF938C014CE4DB
:1043C00050E06AED71E2FC0180810E94232CEC0137
:1043D0008DE091E29B838A8361EC70E3F801848134
:1043E0000E94522C9D878C87DF91CF911F910F9156
:1043F00008950F931F93CF93DF938C016CE971E2C3
:10440000FC0180810E94522CEC010E94F5391E862D
:10441000F80184819581A681B7810097A105B10536
:10442000F1F088879987AA87BB87188A1F861A8A1E
:10443000198A1B8AF8940E94761F088519852A8597
:104440003B85DC01CB01800F911FA21FB31F8C8322
:104450009D83AE83BF83CE010E94473A7894DF915B
:10446000CF911F910F9108950F931F93CF93DF93D7
:104470008C0165EF78E3FC0180810E94522CEC01F5
:104480000E94F5391E86F80180859185A285B38545
:10449000892B8A2B8B2B29F4DF91CF911F910F91C0
:1044A000089584819581A681B7818C839D83AE8395
:1044B000BF8380859185A285B38588879987AA87E0
:1044C000BB871B8A1A8A1D8A1C8A1E8A8485888B50
:1044D000CE01DF91CF911F910F910C94473A2F920B
:1044E0003F924F925F926F927F928F929F92AF9284
:1044F000BF92CF92DF92EF92FF920F931F93CF93D1
:10450000DF9300D000D01F92CDB7DEB73C016AED3B
:1045100071E2DC018C910E94522C4C018AE38B8366
:10452000D4011C96ED91FC911D978E010C5F1F4FDD
:1045300021E0AE014D5F5F4F61E080810E940B1A68
:104540008C8184FF06C0F401858996890196968B3B
:10455000858B82E78D830E94761F1B012C01D4017D
:104560001C96ED91FC911D978E010F5F1F4F22E06D
:10457000AE014B5F5F4F61E080810E940B1A0E9489
:10458000761F29812F71A22EB12CBA2CAA242A8140
:10459000A22A0B2C000CCC08DD087B018C01E21850
:1045A000F30804091509A2019101F3016081C40116
:1045B00043960E94AB1F0F900F900F900F900F909B
:1045C000DF91CF911F910F91FF90EF90DF90CF90EF
:1045D000BF90AF909F908F907F906F905F904F9023
:1045E0003F902F9008952F923F924F925F926F923B
:1045F0007F928F929F92AF92BF92CF92DF92EF9273
:10460000FF920F931F93CF93DF9300D0CDB7DEB708
:104610003C016BEB71E2FC0180810E94522C4C0149
:104620008FEA89831A820E94761F1B012C019E014A
:104630002F5F3F4F42E061E0F401848595850E9441
:10464000F0140E94761F2A812F71F6E02F9F5001EF
:1046500011240B2C000CCC08DD087B018C01E21826
:10466000F30804091509A2019101F3016081C40155
:104670000F960E94AB1F0F900F90DF91CF911F916B
:104680000F91FF90EF90DF90CF90BF90AF909F90F1
:104690008F907F906F905F904F903F902F900895F4
:1046A0007F928F929F92AF92BF92CF92DF92EF92C2
:1046B000FF920F931F93CF93DF937C01DC01DC917A
:1046C00065EF78E38D2F0E94522C8C01F701C48195
:1046D000B084A184DC011F969C90B2E09B1609F483
:1046E0004FC00E94761F6B017C012B2D3A2D4C2F61
:1046F00061E0D8011C968D919C911D970E94F01449
:104700000E94761F8B019C010C191D092E093F097F
:10471000013213402105310558F54C2F50E0E1E0FE
:104720009E1659F1AF92BF925F934F93FF92EF9213
:10473000DF92CF921F92DF9382EF93E09F938F934C
:104740000E94E4368DB79EB70C960FB6F8949EBFC4
:104750000FBE8DBFDF91CF911F910F91FF90EF9012
:10476000DF90CF90BF90AF909F908F907F900895F3
:1047700040E050E0E1E09E12D5CF6B017C01D2CF4A
:10478000DC011C96ED91FC911D97948082807380D2
:1047900040E0682D772D892D0E942F1B0E94761FE7
:1047A0006B017C01B0E1CB0ED11CE11CF11C0E941D
:1047B000761F2F2DC616D706E806290B27FFF7CF41
:1047C000F89441E0682D772D892D0E942F1B0E94BF
:1047D000761F6B017C0178942B2D3A2D4C2F61E0D4
:1047E000F801848595850E94F0144C2F50E09ACFF3
:1047F000CF93DF93EC0105969F938F938C811F924B
:104800008F9389818F9388818F931F926F9383EE0B
:1048100093E09F938F930E94E4361C828881998154
:104820000196998388838DB79EB70A960FB6F89440
:104830009EBF0FBE8DBFDF91CF9108950F931F9341
:10484000CF93DF9300D01F92CDB7DEB7DC011C966B
:10485000ED91FC911D9788E18B838E010F5F1F4FB7
:1048600022E0AE014D5F5F4F61E080810E940B1A34
:1048700089819A819827892798270F900F900F9008
:10488000DF91CF911F910F9108954F925F926F9298
:104890007F928F929F92AF92BF92CF92DF92EF92D0
:1048A000FF920F931F93CF93DF934C016CE971E25A
:1048B000FC0180810E94522CEC010E94761F2B018A
:1048C0003C01CE010E941E248C010E94761F0834F8
:1048D000110511F1A12CB12C65017B018C01E418AB
:1048E000F50806091709A3019201F4016081CE01C0
:1048F0000F960E94AB1FDF91CF911F910F91FF90F8
:10490000EF90DF90CF90BF90AF909F908F907F906F
:104910006F905F904F90089524E0A22EB12CC12C8F
:10492000D12CDBCF0F931F93CF93DF93EC01F8943F
:104930000E94761F088519852A853B85DC01CB01FD
:10494000800F911FA21FB31F8C839D83AE83BF83F3
:10495000CE010E94473A7894DF91CF911F910F9139
:1049600008950F931F93CF93DF938C016BEB71E24C
:10497000FC0180810E94522CEC010E94F5391E86B8
:10498000F80184819581A681B7810097A105B105C1
:1049900029F4DF91CF911F910F910895888799870E
:1049A000AA87BB87188A1F861A8A198A1B8ACE0192
:1049B000DF91CF911F910F910C9492240F931F932D
:1049C000CF93DF93EC01F8940E94761F0885198538
:1049D0002A853B85DC01CB01800F911FA21FB31FED
:1049E0008C839D83AE83BF83CE010E94473A789427
:1049F000DF91CF911F910F9108950F931F93CF9344
:104A0000DF938C016AED71E2FC0180810E94522CDF
:104A1000EC010E94F5391A8AF80184819581A681FA
:104A2000B7810097A105B10529F4DF91CF911F91BE
:104A30000F91089588879987AA87BB871C8A1B8A4C
:104A40001E8A1D8A1F8A1F861E86198A188ACE0111
:104A5000DF91CF911F910F910C94DE24FC011092F5
:104A6000260181E080934D01818D8160818F448199
:104A700055816681778180859185A285B385840F74
:104A8000951FA61FB71F84839583A683B78381E0F4
:104A900008950F931F93CF93DF938C016BE875E21A
:104AA000FC0180810E94522CEC010E94F539F80132
:104AB00084819581A681B7818C839D83AE83BF83DA
:104AC00080859185A285B38588879987AA87BB87CA
:104AD000892B8A2B8B2B29F4DF91CF911F910F917A
:104AE000089584859585A685B7858C879D87AE8733
:104AF000BF8780899189A289B389888B998BAA8B7A
:104B0000BB8B84898E8B1F8ACE01DF91CF911F9141
:104B10000F910C94473AFF920F931F93CF93DF931B
:104B2000EC01F88483E08F15E0F04AE150E06BE897
:104B300075E288810E94232C8C018EE295E2F801B7
:104B4000938382836FEC73E18C810E94522CF80175
:104B5000958B848BF08EDF91CF911F910F91FF90F9
:104B6000089587E20E94AC3CCF93DF93EC016B8108
:104B70007C818D8140E00E943E1B8D859E850E9438
:104B80000A186E817F81888541E00E94E01A8D8538
:104B90009E850E940A1869857A858B8541E0DF91A0
:104BA000CF910C94E01A1F93CF93DF93EC01162F53
:104BB0008D859E850E940A1869857A858B8541E0DE
:104BC0000E94E01A6E817F81888541E00E94E01A90
:104BD0008D859E850E940A186B817C818D8140E0C5
:104BE0000E943E1B8D859E850E940A1868817981EE
:104BF0008A8140E00E943E1B612FCE01DF91CF9160
:104C00001F910C9432188F929F92AF92BF92CF92C5
:104C1000EF920F931F93CF93DF93EC01480159015B
:104C20001F92EF92BF92AF929F920F937F936F93D9
:104C30005F934F931F92CF9287EF93E09F938F9351
:104C40000E94E4368DB79EB70E960FB6F8949EBFBD
:104C50000FBE8DBFE11009C08C859D85AE85BF85D7
:104C600088169906AA06BB0688F48F898F5F8F8BFA
:104C70009E898917B0F4DF91CF911F910F91EF902A
:104C8000CF90BF90AF909F908F9008958889998919
:104C9000AA89BB8988159905AA05BB0530F31F8A27
:104CA000EACF809127018111FACF86E20E94AC3CC5
:104CB0009F92AF92BF92CF92DF92EF92FF920F93AB
:104CC0001F93CF93DF93EC01C62E942ED52EB22ED8
:104CD00078016C85862F8160A82EC11085C06A2D51
:104CE000CE010E94D3258FEF8B0DBB2009F46EC03F
:104CF0006701C80ED11C69857A858B8541E00E94C9
:104D0000E01A08E010E08D859E850E940A186E81E9
:104D10007F81888541E00E94E01A8D859E850E94F2
:104D20000A18110FE985FA8590818B85892391E016
:104D300009F490E0192B688179818A8140E00E9412
:104D40003E1B015001F769857A858B8541E00E9401
:104D5000E01ACE14DF04F1F06B817C818D8140E09C
:104D60000E943E1B8D859E850E940A186E817F8160
:104D7000888541E00E94E01A8D859E850E940A1870
:104D8000688179818A8140E00E943E1BF70111937E
:104D90007F01B1CF69857A858B8541E00E94E01A59
:104DA0008D859E850E940A186E817F81888541E0ED
:104DB0000E94E01A8D859E850E940A18688179817B
:104DC0008A8140E00E943E1BF6011083CE01DF91F4
:104DD000CF911F910F91FF90EF90DF90CF90BF90F8
:104DE000AF909F900C94B425CE010E94D325092D3D
:104DF0001D2DCA94D12CEFEFCE1ADE0AC00ED11EA3
:104E0000F80161918F01CE010E943218C016D106BF
:104E1000B9F765CFDF92EF92FF920F931F93CF9375
:104E2000DF937C01C62FD42E152FFC0164850E94D0
:104E3000D3250FEF0C0FCC2371F0CD2DD12F10E027
:104E40000F5F1F4F0C0F1D1F6991C7010E94321881
:104E5000C017D107C9F7C701DF91CF911F910F91FB
:104E6000FF90EF90DF900C94B425CF92DF92EF92F9
:104E7000FF92CF93DF93FC01A085B18582858C934F
:104E8000968581E089278687C82FC170C688D78814
:104E9000E08CF18C97859F5FD1899D1708F05FC0EA
:104EA000892F869586958695DF01A80FB11D5A96A4
:104EB0002C9130E0892F877002C0359527958A950F
:104EC000E2F72170B701A601C217A9F033C0892FFC
:104ED000869586958695DF01A80FB11D5A962C916F
:104EE00030E0892F877002C0359527958A95E2F7C3
:104EF0002170C2131FC04C0D5D1D6E1D7F1D9F5F75
:104F00009D1728F38AE29AE29383828384819581B4
:104F1000A681B781480F591F6A1F7B1F44835583A1
:104F20006683778381E0DF91CF91FF90EF90DF90F0
:104F3000CF900895978784819581A681B781480F86
:104F4000591F6A1F7B1F448355836683778381E0E3
:104F5000DF91CF91FF90EF90DF90CF900895B70150
:104F6000A601D0CF6F927F928F92CF92DF92EF9275
:104F7000FF92CF93DF93EC0160E08C810E94241EAE
:104F80003B01882EC884D984EA84FB84D7FC24C0E2
:104F9000A601415F5F4F62EB77E288810E94232C7C
:104FA000FC01608271828282D686C5868C859D8551
:104FB0009483838388899989AA89BB898187928709
:104FC000A387B487DF91CF91FF90EF90DF90CF90D0
:104FD0008F907F906F90089584E20E94AC3CCF92B6
:104FE000DF92EF92FF920F931F93CF93DF93EC0129
:104FF000E885F9858A8580830E94761F3E8521E0B9
:1050000023272E872F852F5F2F87213009F45CC03F
:105010002530E0F40C811D812E813F814A895B8916
:105020006C897D89DB01CA01800F911FA21FB31F0C
:105030008C839D83AE83BF8381E0DF91CF911F91ED
:105040000F91FF90EF90DF90CF900895CC80DD809E
:10505000EE80FF80AB01BC014C195D096E097F0930
:105060008E899F89A88DB98D481B590B6A0B7B0BC4
:10507000DB01CA010296A11DB11DB7FD34C0B59573
:10508000A79597958795B595A795979587950A893B
:105090001B892C893D89800F911FA21FB31F8E8B06
:1050A0009F8BA88FB98F25E337E23B832A834C0D72
:1050B0005D1D6E1D7F1D840F951FA61FB71F8C835E
:1050C0009D83AE83BF83B8CF0C811D812E813F812C
:1050D000AB01BC01401B510B620B730B4E8B5F8B02
:1050E000688F798F9BCFDB01CA010596A11DB11D89
:1050F000C6CFEF92FF920F931F93CF93DF937C0164
:105100006AE179E2FC0180810E94522CEC011E854B
:1051100011FF07C0DF91CF911F910F91FF90EF908A
:105120000895F701048160857185F4840B3008F0DF
:1051300045C0FAE0FF1508F441C0402F50E04A9600
:105140000E94C73D1F86117312601E87802F880F33
:10515000880F880F898BFF0CFF0CFF0CF88A002347
:1051600049F08A8D8F738A3229F48FEE97E29B8300
:105170008A830CC08A899B89AC89BD898E8B9F8B61
:10518000A88FB98F85E397E29B838A83F8940E9466
:10519000761FDC01CB018058934FAF4FBF4F8C83FC
:1051A0009D83AE83BF83CE010E94473A7894DF91FE
:1051B000CF911F910F91FF90EF90089582E20E948E
:1051C000AC3C0F931F93CF93DF938C016BE870E29D
:1051D000DC018C910E94522CEC01D8011496EC91C8
:1051E0008F898E0F8F8BF8948E85E817D0F48E1BE5
:1051F000F0E03F96EC0FFD1FDE011F962FEF280F0A
:1052000030E0205F3F4F2C0F3D1F91919D93A217DF
:10521000B307D9F78E877894DF91CF911F910F91C3
:1052200008951E868EEF888F7894DF91CF911F911D
:105230000F9108957F928F929F92AF92BF92CF92DB
:10524000DF92EF92FF920F931F93CF93DF93EC01C6
:1052500044E250E06AE179E288810E94232C8C01CB
:1052600078848C809D80AE80BF80CC84DD84EE8489
:10527000FF8461E0711001C060E0882D0E94F61A81
:10528000F80163877487858761E08C2D0E94241E56
:10529000F80160877187828788899989AA89BB8983
:1052A000828B938BA48BB58B711018C091E08C14FA
:1052B0009D04AE04BF04C1F080E0892BF80186870D
:1052C000DF91CF911F910F91FF90EF90DF90CF90E2
:1052D000BF90AF909F908F907F90089591E18C1434
:1052E0009D04AE04BF0441F780E2E7CFCF93DF9384
:1052F000EC018E8585FD0DC0688579858A8541E044
:105300000E942F1B8E85807381608E87DF91CF91E5
:105310000895688579858A8541E00E943E1B8E85C7
:10532000807381608E87DF91CF910895CF93DF9353
:10533000FC01A385B4855C918785982F977021E047
:1053400030E001C0220F9A95EAF7982F969596952E
:105350009695DF01A90FB11D5A969C915A974585E4
:105360004523E1F0292B5A962C938F5F908989175A
:10537000E8F487874481558166817781868997899A
:10538000A08DB18D840F951FA61FB71F84839583B1
:10539000A683B78381E0DF91CF91089520952923DB
:1053A0005A962C938F5F9089891718F3EF01CF01DC
:1053B0000E9476298E8588608E871092260181E072
:1053C00080934E0180E0DF91CF910895CF93DF93DA
:1053D000FC01A385B4859C9185858923E9F08685A8
:1053E00084608687878591E0980F9787803408F5D9
:1053F000448155816681778186899789A08DB18D99
:10540000840F951FA61FB71F84839583A683B78338
:1054100081E0DF91CF910895868582FFE3CF1786E3
:1054200086E999E293838283CF01DF91CF910C9437
:105430009629EF01108ACF010E9476298E85886017
:105440008E871092260181E080934E0180E0DF91EB
:10545000CF9108951F93CF93DF93EC011889112307
:1054600069F14E8545FD23C01F8686EE99E29B8338
:105470008A838E899F89A88DB98D880F991FAA1F4D
:10548000BB1F880F991FAA1FBB1F4C815D816E81B6
:105490007F81840F951FA61FB71F8C839D83AE83CA
:1054A000BF8311E0812FDF91CF911F91089540714B
:1054B0006B857C858D850E94E01AD6CF0E94762967
:1054C0008E8588608E871092260181E080934E0140
:1054D000812FDF91CF911F91089549E150E06DE652
:1054E0007AE2FC0180810E94232C2FEA3DE2FC013C
:1054F000338322832AEC3DE2338722870895CF93BA
:10550000DF93DC0114969C911497C0E0D0E0FE017B
:10551000E05AFB4FE4919E1739F02196C830D1052F
:10552000B1F78DE20E94AC3C87E980937A0030911C
:105530007E0081E090E00C2E01C0880F0A94EAF70B
:10554000832B80937E004FE150E06FE77AE28C91ED
:105550000E94232CFC0185EB9AE293838283C28F05
:1055600081E0858FDF91CF910895FC0180917A00D1
:1055700086FF0EC084819581A681B7818853984F9C
:10558000AF4FBF4F84839583A683B78381E008958F
:10559000828D90910001981761F09F3F59F7809399
:1055A00000018770806480937C0087ED80937A008F
:1055B000E1CF8FEF80930001209178003091790046
:1055C000858D968D891780F544895589240F351F5F
:1055D0008F5F358B248B858F891760F1868997893A
:1055E00028173907C8F1808D918D82179307A0F194
:1055F000138E1092260181E08093500140895189D9
:105600006289738980859185A285B385840F951FF2
:10561000A61FB71F808B918BA28BB38B848395833E
:10562000A683B78381E0089581E0358B248B858F35
:105630008917A0F644815581668177818485958597
:10564000A685B785840F951FA61FB71F84839583F2
:10565000A683B78381E00895838D8F5F838F948DB8
:10566000891738F2809127018111C2CF8AE10E9407
:10567000AC3CEF92FF920F931F93CF93DF938C017B
:105680006DE67AE2FC0180810E94522CEC01F894D4
:105690008E8980FF13C07E01F8E0EF0EF11CC70178
:1056A0000E94F539F80184819581A681B7818C87A4
:1056B0009D87AE87BF87C7010E94473A7894DF91E4
:1056C000CF911F910F91FF90EF9008951F93CF936B
:1056D000DF93EC01162FAC89BD891097B9F01296B3
:1056E000ED91FC9113978D919C9111979D8B8C8BD3
:1056F00011961C921E9213961C921E921297612F65
:10570000CD010995AC89BD89109749F71092260102
:1057100081E080934F01DF91CF911F910895EF9227
:10572000FF921F93CF93DF937C01FC0110816DE604
:105730007AE2812F0E94522CEC01F8948E8980FF2E
:1057400009C0F70164816F8B8A7F84608E8BCE01E4
:105750000E94662BCE010E94F539CE0108960E9468
:10576000F5391E8A8F8978941F921F921F921F927B
:105770001F928F931F921F921F921F938FE194E0AD
:105780009F938F930E94E4368DB79EB70C960FB609
:10579000F8949EBF0FBE8DBFDF91CF911F91FF90F8
:1057A000EF900895CF93DF93EC010E94F539CE017D
:1057B00008960E94F539EC89FD89309751F0908167
:1057C00081811382128211821082E92FF82F309783
:1057D000B1F71D8A1C8A188E1F8A1E8ADF91CF910D
:1057E00008950F931F93CF93DF938C016DE67AE2B8
:1057F000FC0180810E94522CEC01F8940E94D22B73
:1058000081E08E8BF80184819581A681B7818C839C
:105810009D83AE83BF8380859185A285B385888B68
:10582000998BAA8BBB8B892B8A2B8B2B19F0CE01E2
:105830000E94473AF8018485888F7894DF91CF9150
:105840001F910F910895CF93DF939091370189179E
:1058500030F5C82FD0E0CC0FDD1FCC0FDD1FE0915D
:105860003801F0913901EC0FFD1F80819181892B66
:10587000B1F480913F0190914001892B81F47183B3
:105880006083CA010E94C1362091380130913901EC
:10589000C20FD31F9B838A83DF91CF9108958BE042
:1058A0000E94AC3C90913701891788F4E09138014F
:1058B000F091390194E0899FE00DF11D1124808160
:1058C00091818617970719F48281938108958CE05E
:1058D0000E94AC3CCF92DF92EF92FF92CF93DF9386
:1058E000C0913F01D09140012097B9F121976E01FD
:1058F000E12CF12CA0913E01B0E02097D9F020E0FE
:1059000030E040E050E0BA0180913C0190913D01CF
:10591000FC01E20FF31F4F5F5F4F6F4F7F4F2A0F66
:105920003B1F820F931F918380834C155D056E058D
:105930007F0550F380913C0190913D01CA9FF00199
:10594000CB9FF00DDA9FF00D1124E80FF91F1182A3
:1059500010829093460180934501DF91CF91FF9093
:10596000EF90DF90CF900895FC0113821282118294
:1059700010826F3F710509F07CF480913F01909196
:105980004001892B49F480913E0190E086179707EA
:1059900014F460933E0108950E94CE322FB7F8941C
:1059A0008091450190914601009749F0FC014081AA
:1059B000518150934601409345012FBF08958FE0D8
:1059C0000E94AC3CCF92DF92EF92FF921F93CF9355
:1059D000DF936A017B0160E774E0FB019491981703
:1059E00049F0675F7F4FF4E0683B7F07B1F784E3DE
:1059F0000E94AC3CFB013896949191FF19C030EAAB
:105A0000C3163FE5D306E104F10408F081C0A8ED18
:105A1000CA16A7E2DA06E104F10408F08AC0B7EF7B
:105A2000CB16B8E0DB06E104F10488F012E010C008
:105A3000F8EBCF16F7E4DF06E104F10408F057C0F5
:105A400037EFC31638E0D306E104F10478F711E02C
:105A5000FB013396A591B491FB013596C591D49184
:105A6000FB0137963491E82FE695E695E695F0E050
:105A7000EE0FFF1FE859FB4F459154918770E1E00D
:105A8000F0E07F0101C0EE0C8A95EAF7FB01319648
:105A9000C590D490892F8170A038B10509F45CC0FD
:105AA000EFB7F8949881977011F0191352C01883CA
:105AB00081114AC09FB7F894622F70E0E6017983A4
:105AC00068839FBF9C913160392B3C93DA0111961A
:105AD0009C911197E92A1196EC92EFBFB601DF91E4
