:100000000C9412090C943F090C943F090C943F097D
:100010000C943F090C943F090C943F090C943F0940
:100020000C943F090C943F090C943F090C943F0930
:100030000C94793E0C943F090C943F090C943F09B1
:100040000C943F090C94A91F0C943F090C943F0990
:100050000C943F090C943F090C943F090C943F0900
:100060000C943F090C94503E0C94263E0C943F098E
:100070000C943F090C943F090C943F090C943F09E0
:100080000C943F090C943F090C943F090C943F09D0
:100090000C943F090C943F090C943F090C943F09C0
:1000A0000C943F090C943F090C943F090C943F09B0
:1000B0000C943F090C943F090C943F090C943F09A0
:1000C0000C943F090C943F090C943F090C943F0990
:1000D0000C943F090C943F090C943F090C943F0980
:1000E0000C943F090C94A6180C949F210C94E72AB9
:1000F0000C942E300C9402260C94AB3A0C94F132F2
:100100000C94DC210C94A51C0C94C0230C94F42CAE
:100110000C94AD330C94EE320C9485360C9440293B
:100120000C94151E0C940E310C94322A0C9450151C
:100130000C94601A0C9485230C9420150C941419BB
:100140000C9430220C942B230C9444240C943B17D5
:100150000C9436330C94E0130C9466360C94372BC5
:100160000C940D1D0C94BA1A0C9445130C94162C77
:100170000C942F320C94A0220C94171F0C948628F8
:100180000C94A2240C94562D0C948D340C940C3B9E
:100190000C9437340C94ED220C94312F0C94EE33E4
:1001A0000C948B2F0C94F6140C9496250C942732F7
:1001B0000C94DC260C944B170C94F02F0C946213C7
:1001C0000C94A3150C943B3B0C94D5350C94FB215B
:1001D0000C94E2320C944E260C948A180C94032949
:1001E0000C946E180C9453220C94D02B0C94393B25
:1001F0000C944A230C949E2C0C9443210C941A3E8C
:100200000C94162F0C94C2330C949F300C944830ED
:100210000C9449330C946B2A0C945B3A0C94BE2BCF
:100220000C94DD340C947F260C948A360C94B8130D
:100230000C9458310C94BC2F0C948F330C944D1F9C
:100240000C948C3A0C940C230C94D61A0C949A2689
:100250000C945E220C943D310C9490330C94593BD9
:100260000C94F4350C94EF1C0C9469220C94272206
:100270000C942F3A0C948C320C94503A0C946C14CD
:100280000C94BF340C949D1E0C9427180C94FD36CE
:100290000C94EE140C947B2B0C94181E0C94883543
:1002A0000C94402F0C94CA290400000000040400A0
:1002B0000000000400000000000000040000000036
:1002C000000400020000040004000004070404000D
:1002D00000040404000002020000000204070004FD
:1002E00007070400040400000400020204040404DC
:1002F00004000004000404040404040400040002D4
:1003000003040004040004000400000400040000CE
:10031000000000000000010201020C03EE330200A5
:1003200001000000E232030001000000EE32040090
:1003300001000000F1320500010000003633060123
:100340000001F405601A070001000000D61A080138
:1003500000010B03BA1A0900010000008F330A02E2
:100360000101EF05AD330B030103080390330C02C9
:1003700001020603C2330D0200020C0385360E0291
:100380000002DB058A360F0300030803FD36100266
:1003900000020603EF1C110500050103A51C120253
:1003A0000002DB050E31130100010B03F02F1402D4
:1003B00000020603B81315020002DB0545131604FC
:1003C0000004FD02E01317050005F802621318018E
:1003D00000010B03BC2F19080008F00248301A0373
:1003E0000003ED022E301B020002DB05F42C1C0280
:1003F000000206039E2C1D040004D305562D1E0189
:1004000000010B03BE2B1F080008E5025015200257
:1004100000020603D02B21040003DD05F61422039D
:100420000002E0053B1723030002E0054B172404FC
:100430000004D705A315250100010B03EE142603C4
:100440000003E202201527050003DF0258312804CB
:100450000003DC022F3229030002E0053D312A04AB
:100460000004D7058C322B0100010B0327322C032B
:100470000003D90227222D030003E2059D1E2E064C
:100480000006D302171F2F020002DB05322A3005B7
:100490000005CE029F2131040004E905FB21320250
:1004A0000002DB05DC2133040003CB02CA2934053A
:1004B0000005C6026B2A350100010B03DD3436044A
:1004C0000003C405883537050005C1020329380437
:1004D0000004D7058D3439030003E202BF343A0328
:1004E0000002E005D5353B030002E00566363C0618
:1004F0000006BB02F4353D030002E0056E183E0322
:100500000002E0058A183F080008B302A61840065A
:100510000006BB02141941050005AE022718420669
:100520000006A8029A2643030003ED02DC264401DC
:1005300000010B03AB3A4502000206030C3B4602E6
:100540000002DB058C3A47030002E005A2244804C0
:100550000004D305852349030003ED025B3A4A01F9
:1005600000010B03C0234B02000206034E264C027F
:100570000002DB052B234D0100010B0344244E0236
:100580000002060302264F020002DB050C23500185
:1005900000010B0396255102000206034A23520173
:1005A00000010B03692253050005CE02A02254026C
:1005B0000002DB05ED225500010000001A3E560046
:1005C0000500000004020704000002000204040009
:1005D00004000704000004040000000404040407ED
:1005E00004070400020404040004040004040107D6
:1005F0000400040200000000000000060002026D7A
:100600004003C4056C1D06C7056B0F03CD056A408A
:1006100003D005691404D305681704D705670A02D7
:10062000DB05664002E005654003DD05644002E04D
:1006300005634002E005621003E205611104E5056F
:10064000601104E9055F0D02ED055E0B01F4055D27
:100650004001EF055C1204F0055B0B01F4055A1034
:1006600002F505591503F705004002FA05580E0278
:10067000FC05570901FE05560600000028292A2B13
:100680002C2D2E2F505152535455565720002300D5
:10069000260029002C002F00320000010000030179
:1006A000060109010F47004400450080013548005C
:1006B0004400450020010D88008000810080000E6C
:1006C0008A008000810020000F8C008000810008DB
:1006D000000CB300B000B10080033EB400B000B124
:1006E000002003239800900091008000249A00903D
:1006F0000091002000259C009000910008003BA87C
:1007000000A000A10080003CAA00A000A1002000E1
:100710003DAC00A000A10008005B280120012101E0
:1007200080005C2A012001210120005D2C012001B4
:100730002101080078DA9D59796FDBCA11FF2AFB85
:100740000804ED2B6C43A4444A72913F7C252F4D45
:100750009CF8C57153A028089A5C490BF37A5CD2C7
:10076000471FF2DD3BB3B3172925011A20307777F5
:10077000668F397E73E8CF206BDBE034785F8AB612
:10078000E55D7014DC0FA22CD247DE49D1D412965D
:10079000B6797ECAFEFAF6E2E257169F2C4E66EC58
:1007A0005ED4432F4A89B31FEFD8B91EFECAA29365
:1007B0002839896661320BA318B6CA9BAACAEA0215
:1007C00036F933C8CAB2C9B39EA78D2824CB9BA1E2
:1007D000EE5FBFCA83D3159ED8F770549AE50F0C0D
:1007E0005661DA5B5F2C3D82A230046D23D51F5128
:1007F000BF7E35B07628CB74688961ED18FE187815
:10080000F762F7840B3C2075C7659FF6227F903412
:10081000EABBAC9695E853732A1335BC5F9F0F175C
:10082000CC4B9E75A9DC0D7DD13CD5C169844FAB05
:1008300037620B377A2EE78BD81C215B91D2677019
:10084000BA9C39AA3A2B9B6D2A6A7B7B75EDE074C2
:10085000EE76D2573614344C9D1C62B79D9AE4DD77
:1008600078B3910CE2A5252EC456F4599936433F2E
:100870006178CCCA81E3B8E09B6C28FBD44E54D994
:10088000735A0C5DD68305A87B866E3F0EFAEC9BEF
:1008900076B4573E3A3C4A2CF1AE582C96AB99218F
:1008A000EE64AACFE6E6A358D8AFD87E25F66B69EA
:1008B000BF7899BD58A505A7C9DC1E22A29C19A125
:1008C0002FDC7459E4611246E66CA0B2AA592D1CC3
:1008D000959051F174507F6B4B54B5C33A8A67873A
:1008E000B65ABAC7D6BC69C5332F27622EB23E4B63
:1008F000A5F82F48763780EFF4298AD7333FC961AE
:100900004AD4DEE3E2D86EDA3E55075497BF8049F9
:10091000BA3DB4E276C3549530B3A7CB85BB313C26
:1009200077BA317A612F1E79BA13DB9D7AE17CE5C3
:10093000D3832D6F4BBE2F2F66D7D2FEA5E5249B08
:10094000F988D3F8CF2166BD945672FBFAD5DF0043
:1009500030E663DE27D1EF400C692EADAAE7CE2644
:1009600065BF5C47563DB9B53299970FF65B14F6F3
:10097000F3A5CED3B141B1BC2AD23D1B9B792770E0
:1009800084477B7518A6DAF40BD1994F820D45EC9C
:10099000A88652726FD3C83DACDFF1AE6AC09BDB54
:1009A0008312F5979D5013F7ECBECA87ACB3B6D14E
:1009B0003DA77B50C07A3B8996D78B8A938539E0D7
:1009C000E93B9487132B3CBAE0F703D873038161AA
:1009D0006D46B0CB56D932E927B4641DCF0095BB24
:1009E0008277781E40744790111982A74EF47C8F4D
:1009F000028D9608C3A38057BCDBF23A7F49115B96
:100A0000E01230453893EE9A8AEF21B8CCAAD67717
:100A1000003DB6F83D4678B8BAC3367AAE95712730
:100A2000B65BDEE12324FA07C257EC0E57F103EE62
:100A300094F5DC0A2802F0D808407470E99464C880
:100A4000F22E278B390AB6E0CDEA9E20643D52345F
:100A5000E00E341C5AD402F8E151A0E13195705EE9
:100A60000A1668D11FBF49CE49342143151832A751
:100A70008E048488B0543585D8BCA4A06BBB57C7FE
:100A8000954B311DC4E006B8AABD6C4D6CA4C331B2
:100A90003DCEA525D7A0312342C53E481F0961A8F8
:100AA000700C64847F51BD5C92AD2F22C7259B4D95
:100AB000FF9475DC6707FFB43E5964E6F3D04E49F6
:100AC0004C3B695B9A3E7F81CF2F78DDC3E359B3FE
:100AD000D9C081CAA96DF484751D0FF032C377CCDB
:100AE000AADFC181BBA62CD4E06786B2022B359861
:100AF000AF74634D24F65786B670E64379CB6EF03B
:100B0000EE1E8321909D4D928991118308D6133A50
:100B100065978303C4646509A6F9C6FFE938957330
:100B20001C1D49DC0872A62D30EE78FEE06529F325
:100B3000D0DC6192A4D81BB40D60D3F47C2FF425D3
:100B4000668349FC9E4863154EE8944627AEBA8AF0
:100B5000A6441391AD66966094074C0E5BAEC664D6
:100B6000D36D964BB33EC914A6FBC413BABD8DAC6E
:100B70002DEC85DAEF64AF88251059C586E4BFB443
:100B80002F3E145CBEB387A7E691966900410DB075
:100B9000AEF0949C908E067E28B9B467347E4613DE
:100BA000C6866592D058726B59E0CD961823A8C5B9
:100BB0001A34270A1AC6B1770A24E0AF005886977C
:100BC000AB5C0AB41AEB4FC54F683C3D0F1840F7B9
:100BD00048E3BF619219C3BDE77B44EA052A01B32C
:100BE0007B8EB231604A88A9E6CFFA0A902358D0AA
:100BF000121D859190888C3C7E92D98154C036BC60
:100C0000240B6B968DF32F8727CB90E83C44F2564C
:100C1000E70BB33A02729CD2400E21847B300C2C3D
:100C200089633984E295908DC1EEAA91E250F6B5C0
:100C3000B769A2EFF1FD77CC418B94D8FD283EC671
:100C4000EB31D5E1F018AF904AA57029C66040613C
:100C50008109B175BC70ED0854E447EB25C86736CF
:100C60000278F10038604B9D808D44AD22940DA038
:100C7000140E40239A1B65882E7BC003C024568E19
:100C8000AEF7133BDE369DCE2AC87BD5D81A097F36
:100C90006E05A8C4CF61D676A7C92B7C22402D0A49
:100CA0004E87FCD8F381C537932C62217F767991EA
:100CB0005E9FFD0B5340CC65CFEF6ED39B771F6FCC
:100CC00011B182D3E0E67C7E74731EC1FF30F01652
:100CD000FB27B578393BBAB9C4858B0F9F2EDEA7A9
:100CE0006F3E5FFD8EEE3253FF8E82EB8B3BA0CAD0
:100CF000FA8A6FB3284E664078F3F59A4E8BB02887
:100D0000FA7C7571F5EE9F57E9D7771F2F3F7D4528
:100D1000B54538797BF51926E916BC135989675D05
:100D2000C159577816ACBE3BFB909E9FDD5DE23605
:100D300074D4ED97B32FB7E9EDDDF5EDEFB0727B2D
:100D4000852BC937CCFC06C84555B5A4DA163AC37D
:100D5000C14FF58619D0804DE3F8E66C169CFE7BFA
:100D600076B4FA0F5CF31CBF57F47D81DF00026A92
:100D7000708903C819D5E00A0750F4ABC11B1C2CBD
:100D800034FF5B35D01BFC8683586FF00F1C2C356D
:100D9000CF7B758CE6F9A006C8F36D040D502AA828
:100DA0008E4B389FCFE1C6474126E3D96259A8341C
:100DB000A82F793C0BA37B78B0E6D2CF53FAC3E7D8
:100DC000614C1268821DA4FCA928B4D299328E0D00
:100DD000057EAAF2CF4AB4F11766D2E18200F3226F
:100DE000AB59DDF40C8C9D216030C0380236A66C06
:100DF000963DED047C93ED49D682F7C04984C886C0
:100E000077905CC5B62E649BA66360067F3763212E
:100E100071B550F36A4A928B01EB5F7A0C0850EB84
:100E20006DE14290CE653D5267FA9A54D95286AF31
:100E3000892592A2C9531D42B32A76A8ADE1A6BC6A
:100E400066A6F8B3FC607417D4DA626DD681C93136
:100E5000DE754DA7527CB3D0710861B2570DAE3725
:100E600019BCB7607DC3145260C342393875B7DE10
:100E7000518065A603E41A5214E728AB3254BAA78E
:100E8000A6AA0B3707647895ACE21024A9C8348B66
:100E900055F3C8CD6D18F621D0A3DDB2ED5AD83E7A
:100EA0000521FEDEBACE63EDF973EF0220404666FF
:100EB00087659F99C5F682C18D68399AD7B94DBEAD
:100EC00013AD665C84630295A6BB37496A5C188AD9
:100ED0005176E3ED8205CD75F68C76BA3202A566C1
:100EE000C2359412D99633A83221161985C196D7E6
:100EF00042A2354948658BA1C42A17983174338DB5
:100F00008ACAF0F923474D60D4FE3EC32EEB0A6532
:100F1000EC9A1A6BE96B14BFCA66187C759BB279A0
:100F2000A274E8235879C6E839E85E0A5516930595
:100F3000B07B5AC082DD5F10754B4903F5BCD452BB
:100F40008D3775D30B859ED6FADBAED982302BB8A0
:100F50007A866FDB40D4855B82B0393A2EF6173F34
:100F600073FD283456F42C3806450D6A404BC67282
:100F7000EED612EC49873D89B2846094C37EA3B655
:100F8000138557C76925F4030E8C60B7E085A44329
:100F90007501A410D5509939E31C782BD35A5245CA
:100FA0002E6CA6FC566190DFB4BDD58EDC370DDB10
:100FB00064EA75F432ACE9BFF82685220342D54CC9
:100FC000A316D817250FE484382CB9EA51DCD57262
:100FD00068311673726A85A4D87FFE9AF5F9AE68F7
:100FE000B624C55FA822541D70A89886FA0136461B
:100FF00044A0C6AA372FDD025826F908408604A46B
:10100000430F86280F75BCD4FA75DD2902ACA62ED5
:1010100001E31E6183ECBE34D0659F4F953ED3C97A
:1010200007F5B5271D8353F609C01302E03DE60B13
:101030001BEC18C95F282D514D7B8BA3BA955F50CF
:101040001B4862DD5D034290C9E4B08C4B98E0011F
:10105000F8ABF6ECC7B38BF7D4B1333D2B95A7A112
:1010600034CBACC3708279E98164045548068F1D86
:10107000408DC0E44E988241B4DAEB9261B8828C24
:10108000611EAEE258453F3D4854F8A341122B7B08
:101090008041922CE17BFE0D762A450EA206FE00D1
:1010A0007FD5787BF3E1711EA842A20510E1F423FD
:1010B0008629AC4785A672FEF45025738C08607EA5
:1010C0008C18B1645ED9CCD40A65AAC7089454B10F
:1010D000B8C4701D1A554338D3FD24953AAAB613E7
:1010E000CE193DAB7C1C7026B5151270AB5E9FAA65
:1010F000C67F746DCDA13F5277FA317A87E9F54901
:101100007008DBBA5B2F5CAB6CB433D4E2808BFB32
:1011100067F89D38944EE4DA4FA911B4573BABB150
:1011200091CBCAB5783C5ADBEBA164FF0469B15797
:10113000E544C2A6F90C4965B5742DA1BDD681F769
:1011400000D3F8F1E5117AED1D2D1253470D79AE5C
:101150007A56F83CCC33E09A7EDB74ADEA49746889
:1011600048BBA03CF2CB158931BACEF9A43F74AC90
:101170006A138F67D4337005B42EFB4D5140C5A759
:10118000BFE5FDA020BFA02E0C643E8012A98949B6
:10119000521BACAA8A1D9A9AB6D16111AE0E55A403
:1011A0007B8AF4BB0E238D46E312F0A716A06A34A7
:1011B000000F952CAE12CA54A5335C3954FA8FFC3B
:1011C000839A445E553729F9A8110719EF3A9E60B2
:1011D000C858A1075D7BA0C0A0B53C7785E0FE0B99
:1011E000B004A4DB277E71E72C2DCF6CA579B0CF9E
:1011F000E8C1C031E681D43E66F4F3CCE08304E676
:10120000EEFA675BC0B0C7D949189DCC8EC3D5EC48
:1012100078BB5CAFE7335EAC836FFF033CE106DD78
:10122000EC0A000011241FBECFEFD1E2DEBFCDBF1C
:1012300000E00CBF14BE0FB6F894A8958091600032
:10124000886180936000109260000FBE12E0A0E001
:10125000B2E0E0EBFEE700E00BBF02C007900D92AA
:10126000AA32B107D9F723E0AAE2B2E001C01D9289
:10127000A939B207E1F70E94DA200C94563F0C948A
:101280000000CF93DF93CDB7DEB76C970FB6F8941D
:10129000DEBF0FBECDBF0E94C7206B017C019E0147
:1012A000275F3F4F398B288B80912602882309F4D2
:1012B000C7C60E94C720C61AD70AE80AF90AF894D6
:1012C00080912602882351F08FEF80932602789434
:1012D0000000F894809126028111F9CF78940E9441
:1012E000C720A7019601260F371F481F591F2E8BB5
:1012F0003F8B488F598F81E08093260280914F0267
:10130000882309F442C010924F028FEF8983AE0107
:101310004F5F5F4F7A010BE316E06EEB7BE2C70194
:101320000E94051B6C01892B81F1D60156968C9188
:1013300082FFF3CF0E94C720F894F60137892689EF
:10134000422F4B7F468B78949F938F937F936F931D
:101350001F923F9321701F922F9389811F928F9329
:101360001F930F930E944A382DB73EB7245F3F4F1B
:101370000FB6F8943EBF0FBE2DBF6EEB7BE2C701E8
:101380000E94051B6C01892B81F6809150028823F5
:1013900029F1109250028FEF8983AE014F5F5F4FAA
:1013A0007A0106E316E060ED7BE2C7010E94051BAF
:1013B000FC01892B99F0958D868D9813F4CFF894C4
:1013C000858D968D891709F433C7789460ED7BE29B
:1013D000C7010E94051BFC01892B69F78091490216
:1013E000882311F1109249028FEF8983CE01019673
:1013F0007C0107E216E06CED71E2C7010E94051B5B
:10140000009791F0DC0158962C912F3FA1F7F894AA
:10141000FC0126852111DDC578946CED71E2C701D0
:101420000E94051B009771F780914E02882309F4F2
:101430003FC010924E028FEF8983AE014F5F5F4F26
:101440007A0102E216E06BE67AE2C7010E94051B10
:10145000009771F1DC011E962C911E9723FFF3CFAC
:10146000F894FC012685277F268778949C01265EC8
:101470003F4F3F932F9350968C91869586958695F6
:101480001F928F9389811F928F931F930F930E94B6
:101490004A38EDB7FEB738960FB6F894FEBF0FBEC8
:1014A000EDBF6BE67AE2C7010E94051B009791F63B
:1014B00080915902882309F44AC0109259028FEF93
:1014C00089839E012F5F3F4F790108E116E06FEBA2
:1014D00074E3C7010E94051BFC01892BC1F1848DB7
:1014E00080FFF5CFF8949481258136814781548916
:1014F00065897689A789B08DD18CC28CB38C848D97
:101500008E7F848F7894BF92CF92DF92BF93AF93F8
:101510007F936F935F934F933F932F939F93898113
:101520001F928F931F930F930E944A384DB75EB757
:10153000405F5F4F0FB6F8945EBF0FBE4DBF6FEBBD
:1015400074E3C7010E94051BFC01892B41F68091C1
:101550004D02882309F456C010924D028FEF8B87FD
:10156000BE01655F7F4F1B013CE0932E47E0842E58
:101570006CED76E2C1010E94051B5C01892B09F428
:1015800041C0D50159968C91599780FFF1CFF894BD
:10159000F5014480558066807780818D8E7F818FB4
:1015A000789458968C91813009F478C308F456C326
:1015B000823009F413C38330D9F6CB8419821A829E
:1015C0009E012F5F3F4F42E061E0F50184899589DC
:1015D0000E94411609811A81102701271027F02F38
:1015E000F670EF2E20E030E0B301A201C5010E94A9
:1015F00054276CED76E2C1010E94051B5C01892B2A
:1016000009F0BFCF80915B02882301F110925B0249
:101610008FEF8B879E01255F3F4F190119E0B12E97
:101620008E010F5F1F4F82EFC82EDD24DA9406C0B3
:10163000D7011E968C911E9780FD5FC36CE87AE3FC
:10164000C1010E94051B7C01892B91F780915C02EE
:10165000882309F463C010925C028FEF8B87FE0130
:101660003B961F019E012F5F3F4F69016BE57AE3B7
:10167000C1010E94051B7C01892B09F44FC0D701D1
:101680001E968C9182FFF2CFF894F701448055802A
:1016900066807780B1881686118A789480859185D6
:1016A000A285B385481A590A6A0A7B0A87010E5E29
:1016B0001F4FD701BB2099F056968C91F701E80F88
:1016C000F11DBFEFB78B108E118E8D5FF701868BEA
:1016D000823308F0CDC0BA94D701B110EDCF1F9678
:1016E0008C91882309F41BC2813009F43DC48230F7
:1016F00009F44BC5F701868990E0C2970CF4B6CF88
:101700006B85C70142960E944A256BE57AE3C101C9
:101710000E94051B7C01892B09F0B1CF80914A0200
:101720008823D9F010924A028FEF8F879E01215FA4
:101730003F4F790132E7932E44E7B42E06C0D6011D
:1017400052968C91529780FD4FC36BE273E2C701B2
:101750000E94051B6C01892B91F780914B02882315
:1017600009F110924B028FEF8F879E01215F3F4F4F
:10177000790107E0402EAE014F5F5F4F4A018FEACB
:10178000582E98EA692E06C0D8011E968C911E9795
:1017900080FD8CC36CE073E2C7010E94051B8C01C5
:1017A000892B91F780914C02882309F467C010922D
:1017B0004C028FEF8983FE0131967F016DEE72E25C
:1017C000C7010E94051B6C01892B09F457C0D60183
:1017D0001E968C9180FFF2CF9980F894F601868551
:1017E0008E7F86877894C6010E9470258834910583
:1017F00029F7D6015396AC90B12CB4E1AB0EB11CD5
:10180000AC0CBD1CD6011C96ED91FC911D971D865C
:10181000850122E0AE01435F5F4F61E080810E945D
:101820005C1BD6011C96ED91FC911D9781E08E8783
:101830000E5F1F4F22E0AE01425F5F4F61E080818B
:101840000E945C1BF60183898C5F838B3601FAE46E
:101850006F0E711CD3011C9112FD16C590E0C1974B
:101860000CF4ACCF692DC6010F960E944A25A6CF75
:101870006B85C8010E944A25BA942ECFA895809105
:101880007502882329F080E480936000109275022D
:1018900010913603112309F46EC000912A0200FD55
:1018A00012C0153008F467C0D0907602BD2C8BEFC3
:1018B0008D0D8C3308F4EBC3EEE7BE1609F4CFC5EB
:1018C000016000932A02412F50E06EE770E086E746
:1018D00092E00E94273F009739F00E7F00932A0282
:1018E0008657924011E0180F01FD0CC0902F9260B6
:1018F00090932A028FEB95E09F938F930E944A3832
:101900000F900F90D12ECC24CA9420E0ED2CF12C16
:1019100019C0822F90E0402F50E0481B590BB701AF
:10192000680F791F6A587D4F8A589D4F0E943D3F2E
:1019300010922602202F8FB7F89490913603191732
:1019400061F08FBF10913603012F0D1911F78FB77A
:10195000F894909136031913F4CF009336038FBF98
:10196000F1E0CF1208C08FEB95E09F938F930E9418
:101970004A380F900F900E94C7206B017C012E897E
:101980003F89488D598D621B730B840B950B80909A
:10199000330290903402A0903502B09036023FEFAF
:1019A000831A930AA30AB30A8092330290923402F4
:1019B000A0923502B092360240902F025090300231
:1019C0006090310270903202460E571E681E791EDA
:1019D00040922F0250923002609231027092320295
:1019E0006115710541E08407910508F02EC39B0144
:1019F000AC010E94843EDC01CB0181509F4FAF4F70
:101A0000BF4F892F9A2FAB2FBB2740912B025091AC
:101A10002C0260912D0270912E02840F951FA61F3B
:101A2000B71F84179507A607B70718F48FEF9FEF26
:101A3000DC0180932B0290932C02A0932D02B09393
:101A40002E024091550250915602609157027091BA
:101A500058025C546B437B4F2F2DC416D506E60607
:101A6000270B27FD21CCBF93AF939F938F937F923A
:101A70006F925F924F92BF92AF929F928F9283E646
:101A800096E09F938F930E944A386DB77EB7625F4E
:101A90007F4F0FB6F8947EBF0FBE6DBF8091550289
:101AA00090915602A0915702B0915802C816D906DB
:101AB000EA06FB0698F48091510290915202A0919F
:101AC0005302B09154020196A11DB11D80935102A1
:101AD00090935202A0935302B0935402C0925502C5
:101AE000D0925602E0925702F092580210922B02C6
:101AF00010922C0210922D0210922E0210922F02A0
:101B0000109230021092310210923202109233027F
:101B1000109234021092350210923602C5CB82E345
:101B200089831A820E94C7204B015C01960142E022
:101B300061E0F701848595850E9441160E94C720C7
:101B4000DC01CB0188199909AA09BB0981329340AC
:101B5000A105B10508F02EC2998197FD67C28418CE
:101B60009508A608B708D70150968C918823C1F034
:101B70002FEF280F41E050E002C0440F551F2A9577
:101B8000E2F7052E000C660B770B840E951EA61E41
:101B9000B71E04C0B694A794979487948A95D2F7F9
:101BA000BFEF8B169104A104B10408F0A2C22A81F0
:101BB00030E0220F331F892F90E0982F8827990F4C
:101BC000822B932BF7012689E20FF11D878A808FE4
:101BD000918F2D5FD70156962C938CCDCB8481E0CD
:101BE00089831A821B821C829E012F5F3F4F43E034
:101BF00061E0848995890E94411669817A818B818F
:101C00009C810E94B63EBB27A92F982F872F9C014D
:101C1000AD01442755272A8B3B8B4C8B5D8B8982EA
:101C20001A829E012F5F3F4F42E061E0D50154963A
:101C30008D919C9155970E9441168A81982F9C7F87
:101C40008A898170E92EE82A0A891B892C893D89B5
:101C5000B301A201C5010E9454278ACCCB8419820A
:101C60001A821B821C829E012F5F3F4F44E061E07D
:101C7000F501848995890E94411669817A818B8159
:101C80009C810E94B63EF62FF770EF2E8B019C01CF
:101C9000B301A201C5010E9454276ACC2B852A8B6F
:101CA00099821A821B821C829E012F5F3F4F44E063
:101CB00061E0848995890E94411669817A818B81CE
:101CC0009C810E94B63E6B017C01BFE0B9831A8201
:101CD0009E012F5F3F4F42E061E0F50184899589C5
:101CE0000E944116970186013327CA88EA80B30112
:101CF000A201C5010E9454273BCCAB84F8012B2DD7
:101D000011922A95E9F7C982980149E061E01C9691
:101D10008D919C911D970E944116D70153968C91ED
:101D200090E0FC017496EE0DFF1D3B81232F207F78
:101D3000E1F0203FD1F0D482D382D282D182F70168
:101D4000E80FF91FD48AF70183898B5F838B803377
:101D500008F005C2D7011E968C911E978E7F1E96A5
:101D60008C93C7010E94E32569CC2D81422F407FCF
:101D700009F0BBC15F81452F407F11F0403FD9F68C
:101D800048854039C1F649854F77942EB0E2B417A3
:101D900090F2D701A80FB91F4A8154964C938C81B9
:101DA00081838E818283852F90E03F71AC01440F47
:101DB000551F42955295507F5427407F5427342B0E
:101DC0003383880F991F880F991F80762F71822B7C
:101DD0008483D70153968C9153978B5F53968C9342
:101DE000803308F4C2C1BCC1AF8450968D919C91E0
:101DF0005197C09758F1B982D6011C96ED91FC918C
:101E00001D978601085E1F4F20E3AE014F5F5F4FB5
:101E100061E080810E945C1B80E3F601878B8089F2
:101E20009189C097918B808B6A2DC60143960E9441
:101E30004A25D60150968D919C915197C09770F18B
:101E40001092260281E080934A027FCCD6011C9634
:101E5000ED91FC911D979B868E010F5F1F4F22E035
:101E6000AE01455F5F4F61E080810E945C1B89810C
:101E70008F7190E0982F88272A81822BF601268582
:101E800037852817390710F497878687D60151962A
:101E90009C938E935097C0970CF0ADCFF60182893A
:101EA0008E7F828BC6010E942F264FCC2F84F40197
:101EB000242D11922A95E9F75B861C866982539638
:101EC000AC905397B12C650134E1C30ED11CC00E08
:101ED000D11E940147E061E01C968D919C911D9765
:101EE0000E9441169E01255F3F4F42E061E0D8010C
:101EF0001C968D919C911D970E9441168C85B82F40
:101F0000BF733B2E8074782EF801EA0DFB1D8A8189
:101F1000848B8B81F60181838C8182838D81838385
:101F20008E8184838F818583D80153968C915397BA
:101F30008A5F53968C938F3208F0A0C1772031F0DE
:101F4000F801818992890196928B818B332009F463
:101F50008FC1D8011E968C911E978E7F1E968C93F2
:101F6000C8010E94E32516CC8FE789838EEF8A8310
:101F70000E94C7206A8B7B8B8C8B9D8B960142E0E5
:101F800060E0F701848595850E9441160E94C72074
:101F90004B015C01DC01CB012A893B894C895D89BD
:101FA000821B930BA40BB50B81329340A105B105A5
:101FB00008F4ADC0D70156968C91F701E80FF11DDA
:101FC000BFEFB78B92E0908F118E8D5FF701868BFC
:101FD00091CB318D308F7894AC01415F5F4F5F932F
:101FE0004F931F922F93FC0187891F928F938981B2
:101FF0001F928F931F930F930E944A382DB73EB7BD
:10200000265F3F4F0FB6F8943EBF0FBE2DBFF3C9FA
:1020100028893989E217F30709F0FAC0809590E022
:102020002A8530E08217930709F450C1D7015696EC
:102030008C91F701E80FF11DBFEFB78B93E0C3CF91
:10204000CE8ADF8AE88EF98E56C96115710550E196
:102050008507910508F0EACC8B019C0101501F4FC8
:102060002F4F3F4F5527432F322F212F0E94843E61
:10207000DC01CB0140912B0250912C0260912D028A
:1020800070912E02840F951FA61FB71FCACCC09057
:1020900077028C2D807F803109F00ECC1D1508F45D
:1020A0006ACC8D2D90E0FC01EB58FD4F20812E373E
:1020B00009F002CCFC01ED58FD4F4F01FC01EC583A
:1020C000FD4F9081D4018C91292F30E07901F82ABD
:1020D0006DEF6D0D86E792E00E94DD20E816F906AF
:1020E00009F4BFC1B0907602E7CB403F09F023CEA0
:1020F00041CEF7018689E80FF11D2FEF278B91E084
:10210000908F118E8D5FD70156968C93F3CA80EC19
:1021100089831A82960142E061E0D7011C968D9175
:102120009C911D970E94411649812A81942F9227E4
:10213000892F82958F709827892F86958695892774
:10214000982F9695892780FDD5C046FF15C1F701C8
:102150008689E80FF11D2FEF278B35E0C4C0912C45
:102160006A2DC7010F960E944A25BEE1B91508F0F5
:1021700087C2F701818992890196928B818B109297
:10218000260281E080935B0259CAD7011C96ED912B
:10219000FC911D971481B281BA8B038140E06B2FB3
:1021A000702F812F0E94801C0E94C7204B015C0170
:1021B000E0E18E0E911CA11CB11C0E94C7202B2DAA
:1021C00086169706A806290B27FFF7CFF89441E05B
:1021D0006A89702F812F0E94801C0E94C7204B01AA
:1021E0005C017894D601EAE01D92EA95E9F7F4E8FB
:1021F000F98323E22A8396014AE061E0D7011C9625
:102200008D919C911D970E944116FE01339685E0A9
:102210009191892728E030E005C0880F21503109CD
:1022200009F4F6CE87FFF9CF880FBDE18B27F6CFF3
:102230005489658990892189328943898F5F858F87
:1022400078946F935F934F933F932F939F938981DC
:102250001F928F931F930F930E944A386DB77EB7DA
:10226000665F7F4F0FB6F8947EBF0FBE6DBF9BC8F1
:102270001092260281E080934B028CCA622DC80125
:102280000F960E944A255ACE0E94C72011FD4AC0CF
:10229000F50122813381322723273227032E000CB8
:1022A000440B550BF601E45BFF4F208031804280E8
:1022B0005380221633064406550608F442C01D7F9B
:1022C000F3011083D60153968C91C8CA898584FF87
:1022D00019C08B8187FD94C0F7018689E80FF11D35
:1022E0002FEF278B34E0308F118E8D5FD7015696FC
:1022F0008C9300CAF7018689E80FF11D2FEF278B19
:1023000093E0FECED70156968C91F701E80FF11DB0
:10231000BFEFB78B25E0208F118E8D5FD7015696CA
:102320008C93E8C9F601E05BFF4F2080318042804A
:102330005380292F621573058405250927FFA8CF2F
:10234000C1CFF601E05BFF4F60837183828393838B
:1023500038970190F081E02D968990FF4FC0D6010B
:10236000A55BBF4F6C91678B9A7F9460968BCF0172
:102370000E94CB2C10E0A4CF84189508A608B708BB
:10238000F70130893323C9F08FEF830F61E070E0EC
:1023900002C0660F771F8A95E2F7CB01092E000C69
:1023A000AA0BBB0B880E991EAA1EBB1E04C0B694B6
:1023B000A794979487943A95D2F77FEF8716910464
:1023C000A104B10408F041C0842F90E0AC01542F67
:1023D0004427550F550FF4E02F9FC0011124842B83
:1023E000952BD70156962C91F701E20FF11D878AA4
:1023F000808F918F2D5FF701268B7CC910E060CF15
:1024000084189508A608B708B1E58B16B5E59B06B4
:10241000A104B10408F06DCE2C8130E0220F331FEF
:1024200090E0982F8827990F822B932BF7013689FC
:10243000E30FF11D2F8126952F73278B808F918FAE
:102440003D5FD70156963C9355C9D70156968C915E
:10245000F701E80FF11DBFEFB78B91E0B4CD11E0AC
:1024600051CA802F8D7F80932A0280910902C81261
:1024700005C181E08C0D8F70806180930902B8E7FF
:102480008B16B2E09B0609F008F4C1C0E8E7F2E061
:102490001EEB212E15E0312EDC8ECDB6DEB68F017F
:1024A0000F5F1F4F2081222309F4E5C0F1018491C1
:1024B000281708F0E0C030E0220F331F220F331F2F
:1024C000220F331FF901E15FFC4FE4914DB75EB776
:1024D00064E0E69F4019510911240FB6F8945EBFDD
:1024E0000FBE4DBF8DB79EB70196F901EF5EFC4F51
:1024F0004491F901EE5EFC4F65917491FB01640F0C
:10250000711DAC01DB8ACA8A9B8F8A8FE617F70799
:1025100009F482C08016910608F46EC0A491A5301B
:1025200028F1A73009F068C02801BFEF4B1A5B0AF9
:10253000D801AC9082010A0D111D8016910608F495
:102540005BC0B12CC12CD12CDA01AD92BD92CD92E1
:10255000DC921397612C712C14964D925D926D92C2
:102560007C921797485F5F4F3196D0CF7A0184E015
:10257000E80EF11C68019FEFC91AD90AD8011C9115
:10258000912F9F77492E512C612C712C012F0076B1
:102590000036A9F117FF3EC086010F5F1F4FD8011B
:1025A00011978C91440C551C661C771C440C551CCF
:1025B000661C771C440C551C661C771C440C551C6F
:1025C000661C771C440C551C661C771C440C551C5F
:1025D000661C771C440C551C661C771C982F9F7733
:1025E000492A87FDDACFDA014D925D926D927C9295
:1025F0001397A70131968ACF87E00E94133EB0EE71
:102600004B2A55245A94652C762CC4CFDC8CCC24D0
:10261000C3947BC98601E7CFCA88DB888A8D9B8DEE
:1026200040912702442331F0F901E05FFC4FE4912F
:10263000E0FF11C02C5E3C4FF90125913491F90166
:1026400019950FB6F894DEBE0FBECDBE081519055C
:10265000E8F6F80122CF809128021F928F93E2E7DB
:10266000F6E0FF93EF930E944A380FB6F894DEBE6F
:102670000FBECDBEEBCF85E00E94133E1D2D3AC9A3
:10268000F1E0F91508F47BCD65CBCF93DF93EC0136
:1026900062E673E188810E94B72DFC018C819D81E7
:1026A000AE81BF81892B8A2B8B2B51F420E0F894CB
:1026B00094A59D7F922B94A77894DF91CF91089554
:1026C00022E0F5CF0F931F93CF93DF938C014DE260
:1026D00050E062E673E1FC0180810E94882DEC01EC
:1026E000F801848518160CF041C064E06CA7F8016D
:1026F00084810E94751F6A8F7B8F8C8F60E0F80148
:1027000080850E94751F6D8F7E8F8F8F80E090E097
:10271000A0E0B0EC88A399A3AAA3BBA3F801808989
:102720009189A289B3898E8B9F8BA88FB98F6BE01B
:1027300070E0CE0184960E94192E8E899F89A88D03
:10274000B98D8997A105B10548F08CE694E19B838A
:102750008A83DF91CF911F910F9108958CA580619D
:102760008CA7DF91CF911F910F91089560E0BECFAC
:10277000CF93DF93EC0162E673E188810E94B72D6D
:10278000FC018C819D81AE81BF81F894468557857F
:1027900060897189452B462B472B79F48483958377
:1027A000A683B783828B938BA48BB58B84A5877FFD
:1027B00084A77894DF91CF91089586E10E94133E1B
:1027C0000F931F93CF93DF938C0162E673E1DC01DB
:1027D0008C910E94B72DEC010E94332EFC01D80190
:1027E00014964D915D916D917C911797428353831F
:1027F0006483758318968D919C9119979187808732
:10280000892B09F466C0D8011C968D919C911D9767
:10281000978386831286F8948CA5282F217081FBDC
:10282000992790F9291729F091E0892792859160DD
:1028300092874E855F8568897989452B462B472B82
:1028400059F583FD19C08CA7118210828CA19DA11E
:10285000892BA9F1AEA1BFA1ED93FC93FFA3EEA339
:10286000CE010E947637CE010E94AE3B7894DF9174
:10287000CF911F910F91089580914502909146024A
:1028800091838083F0934602E09345027894DF9130
:10289000CF911F910F9108958CA7118210828CA166
:1028A0009DA1892B89F0AEA1BFA1ED93FC93FFA35D
:1028B000EEA37894DF91CF911F910F910895FFA31C
:1028C000EEA3FDA3ECA3CCCFFFA3EEA3FDA3ECA34B
:1028D000CDCF87E10E94133ECF92DF92EF92FF921D
:1028E0000F931F93CF93DF93EC01EA8DFB8D8C8DBB
:1028F00080830E94C7200E891F89288D398D6B0126
:102900007C01C00ED11EE21EF31E8E859F85A88914
:10291000B9890197A109B1098E879F87A88BB98BC7
:1029200080FF0EC0CC82DD82EE82FF8281E0DF91EB
:10293000CF911F910F91FF90EF90DF90CF9008956E
:10294000892B8A2B8B2B59F1488559856A857B8584
:102950008A899B89AC89BD89840F951FA61FB71FE3
:102960008A8B9B8BAC8BBD8B0C851D85012E000C3F
:10297000220B330B400F511F621F731F488759876B
:102980006A877B872B2F8C159D05AE052F0927FDA8
:10299000C9CF8C839D83AE83BF8381E0C8CFCE0136
:1029A0000E947637811102C080E0C1CF4C815D81E9
:1029B0006E817F81972F4C155D056E059F0997FFEE
:1029C000B6CF4C195D096E097F094038514C6F4FE5
:1029D0007F4F0CF0A7CF88E10E94133E46E050E005
:1029E00060E275E1FC0180810C94882DCF92DF922A
:1029F000FF920F931F93CF93DF93EC0160E275E199
:102A00008C810E94B72D6C01F8840F2D10E0A80175
:102A10004D5F5F4F66EF74E188810E94882DFC0155
:102A2000D182C082F2826C857D85A8010396DF91F8
:102A3000CF911F910F91FF90DF90CF900C94343F76
:102A4000FF920F931F93CF93DF938C0146E050E0EA
:102A500060E275E1FC0180810E94882DEC01F801A3
:102A6000F08461E0F11060E0F80184810E94751F3C
:102A70006A837B838C838D81F11009C091E0892B5F
:102A80008D83DF91CF911F910F91FF90089599E071
:102A9000892B8D83DF91CF911F910F91FF90089526
:102AA0000F931F93CF93DF938C0160ED7BE2FC01CA
:102AB00080810E94B72DEC010E945C3B9091000246
:102AC0008A8D981303C08FEF80930002F8018481F0
:102AD0009581A681B781888B998BAA8BBB8B8C83C0
:102AE0009D83AE83BF8380859185A285B3858C87C6
:102AF0009D87AE87BF8784858E8F91E0980F9D8FCD
:102B00004089518962897389488759876A877B8799
:102B1000248935893F8B2E8B208D318D398F288FDD
:102B2000948D9C8F811105C0DF91CF911F910F91E2
:102B30000895CE01DF91CF911F910F910C94AE3B80
:102B40008BE10E94133E8F929F92AF92BF92FF92B1
:102B50000F931F93CF93DF93EC0160E275E18881BF
:102B60000E94B72D8C01F88483E08F1508F484C08F
:102B7000F8018581867009F07FC08C849D84AE84C5
:102B8000BF848C819D81AE81BF81892B8A2B8B2B49
:102B900009F074C0EEE8F6E0A591B49111968C911D
:102BA00080FD04C060E088E00E94751F60E089E05D
:102BB0000E94751F60E08AE00E94751F60E08BE054
:102BC0000E94471C80E58CBD1DBC8114F2E19F066C
:102BD000FAE7AF06B10408F041C0811489E0980615
:102BE0008DE3A806B10418F5E0E88E16E4E89E0629
:102BF000EEE1AE06B104C0F5F0E48F16F2E49F06F4
:102C0000FFE0AF06B10468F580E2881681EA980615
:102C100087E0A806B10458F590E0E0E98E16E0EDF3
:102C20009E06E3E0AE06B10428F583E002C090E022
:102C300080E0CF2DCC0FCC0FC065C82BF801C0832E
:102C40009183858184608583DF91CF911F910F915E
:102C5000FF90BF90AF909F908F90089591E080E09B
:102C6000E8CF90E081E0E5CF91E081E0E2CF91E034
:102C700082E0DFCF82E0DDCF0E94A0158EE20E94CD
:102C8000133E6F927F928F929F92AF92BF92CF929C
:102C9000DF92EF92FF920F931F93CF93DF934C013C
:102CA000E62E142F6901DC0115967C901597872D6F
:102CB000867009F451C071FC39C0F40190818181A2
:102CC0009CBD8DBDF72DF1706F2E70FCC8C0EE203D
:102CD00009F49CC08FEF810F112351F0F601908110
:102CE0009EBD0DB407FEFDCF9EB591938150B8F700
:102CF000662091F1072D069506950695402F409583
:102D00004170D40112966D917D918C91DF91CF919C
:102D10001F910F91FF90EF90DF90CF90BF90AF90F9
:102D20009F908F907F906F900C94801CED91FC9100
:102D3000418542706681778180850E94801CB72D15
:102D4000B1706B2E70FC17C0D401CD91DC91AA2418
:102D5000AA94A10E111126C0DF91CF911F910F915E
:102D6000FF90EF90DF90CF90BF90AF909F908F90AB
:102D70007F906F900895072D069506950695402F34
:102D80004170F4016281738184810E94801CD401AE
:102D9000CD91DC91AA24AA94A10E112309F4AECFFF
:102DA00066246394B12C8FEFA81AB80AAC0CBD1C32
:102DB000D601FC9008E010E0898580FF35C0EE81E7
:102DC000FF81888580834F2D40786B817C818D8148
:102DD0000E94801CFF0CEE81FF8188858083110F8B
:102DE000E881F98190818A81892391E009F490E05A
:102DF000192B015009F7EE2011F0F6011083FFEFB7
:102E0000CF1ADF0AAC14BD0499F672CFF601960111
:102E1000210F311D2E173F0709F46ACF81918EBD16
:102E20000DB407FEFDCFF6CF4F2D40786B817C812E
:102E30008D810E94801CFF0CEE81FF81888580833C
:102E4000110FE881F98190818A81892391E009F449
:102E500090E0192BEE81FF8188858083CACF73FAB9
:102E6000442740F9F4016281738184810E94801CAF
:102E7000662463942CCFCF93DF93EC0160E275E17D
:102E800088810E94B72D288539854C8160E0DF91CB
:102E9000CF910C944116FF920F931F93CF93DF9322
:102EA000EC01188160E275E1812F0E94B72D0C8141
:102EB000F884C9852F2D3C2F402F61E00E944116D8
:102EC000CF93FF921F920F931F921F9381E396E07F
:102ED0009F938F930E944A388DB79EB708960FB67E
:102EE000F8949EBF0FBE8DBFDF91CF911F910F91C0
:102EF000FF900895AF92BF92DF92EF92FF920F93EF
:102F00001F93CF93DF93FC01A485B58596854785F4
:102F10005089E18822893389F488A588B688778921
:102F2000008D118DD28C808586279C9384FD20C0D6
:102F300085FD22C086FD24C087FD26C09C93862F78
:102F40008295807F808768279C9364FD2AC065FDF9
:102F500025C066FD1CC067FD1EC09C93DF91CF910C
:102F60001F910F91FF90EF90DF90BF90AF90089569
:102F7000EA01E88285FFDECFE901F88286FFDCCF37
:102F8000E501788387FFDACFE801D882D7CFF50152
:102F9000708367FFE2CFE801D882DFCFE901F882D2
:102FA000D8CFFA01E082D3CF5F926F927F928F9257
:102FB0009F92AF92BF92CF92DF92EF92FF920F93C8
:102FC0001F93CF93DF938C01FC01C080D180E280FE
:102FD000F38084809580A680B78066246A94660E0C
:102FE000662301F1EA01712CFFEF6F1A7F0A640E6C
:102FF000751E59900E94C720DC01CB018C199D09D8
:10300000AE09BF0988159905AA05BB0598F3652D7A
:10301000C8010E947A170E94C7206B017C01C61567
:10302000D70539F7F801C082D182E282F382DF91BD
:10303000CF911F910F91FF90EF90DF90CF90BF90B5
:10304000AF909F908F907F906F905F900895EF92D8
:10305000FF920F931F93CF93DF938C0167E272E38C
:10306000FC0180810E94B72D7C018FE090E00E94DE
:103070002738EC0188E893E19E878D87F8018089E5
:10308000880F8C8761E084810E94471C6E837F8358
:10309000888761E0F80184810E94751F68837983C5
:1030A0008A8361E0F80180850E94471C69877A87DE
:1030B0008B8761E0F80180850E94751F6B837C839C
:1030C0008D83F701D283C183838181608383DF9104
:1030D000CF911F910F91FF90EF9008950F931F9341
:1030E000CF93DF93EC0166EA78E188810E94B72DE7
:1030F0008C01FC0161857285838541E00E94801C02
:10310000488559856C81C801DF91CF911F910F913E
:103110000C94D4170F931F93CF93DF93EC0166EABF
:1031200078E188810E94B72D8C01FC016185728550
:10313000838540E00E94801C488559856C81C801C8
:10314000DF91CF911F910F910C94D417CF92DF9202
:10315000EF92FF920F931F93CF93DF93EC014BE11C
:1031600050E066EA78E188810E94882D8C0160E059
:103170008C810E94751FF80161877287838760E0E8
:1031800088850E94751FF80164877587868760E0CF
:103190008C850E94751FF8016787708B818B60E0BA
:1031A00088890E94751FF801628B738B848B60E0A5
:1031B0008C890E94751FF801658B768B878B60E088
:1031C000888D0E94751FF801608F718F828FF8942F
:1031D0000E94C7206B017C0160E0C8010E947A1741
:1031E0000E94C7207894DC01CB018C199D09AE099F
:1031F000BF09CC8CDD8CEE8CFF8C8C159D05AE054B
:10320000BF0548F4C81AD90AEA0AFB0AF801C482C1
:10321000D582E682F782DF91CF911F910F91FF90C7
:10322000EF90DF90CF900895DF92EF92FF920F938F
:103230001F93CF93DF93EC01D88883E08D15B0F115
:1032400060E275E188810E94B72D7C018AE090E000
:103250000E9427388C0161E08C810E94471CF80194
:1032600060837183828360E088850E94751FF80106
:1032700063837483858360E08C850E94751FF801E9
:10328000668377838087D186F7018581982F967032
:1032900081F4F7011183008382608583DF91CF91F0
:1032A0001F910F91FF90EF90DF9008958BE10E94A6
:1032B000133E0E94A015CF92DF92EF92FF92CF9320
:1032C000DF93EC010E94C7206B017C019E01A0E806
:1032D000BEE30E94BD3E20E432E44FE050E00E9495
:1032E000943EC20ED31EE12CF12C0E94C7206C1517
:1032F0007D058E059F05C8F3DF91CF91FF90EF907C
:10330000DF90CF9008950F931F93CF93DF93EC013D
:10331000062F18E01DC06B817C818D8140E00E94EA
:103320008F1C000F8D859E850E945B196E817F81A9
:10333000888541E00E94311C8D859E850E945B1925
:10334000688179818A8140E00E948F1C115049F088
:1033500007FFE1CF69857A858B8541E00E94311CAA
:10336000E0CF69857A858B8541E00E94311C8D858F
:103370009E850E945B196E817F81888541E00E9455
:10338000311CE985FA8510818B8518238D859E85F2
:103390000E945B19688179818A8140E00E948F1CBC
:1033A00069857A858B8541E00E94311C111105C029
:1033B000DF91CF911F910F91089585E20E94133EF6
:1033C0004F925F926F927F928F929F92AF92BF9235
:1033D000CF92DF92EF92FF920F931F93CF93DF93E1
:1033E0008C01562E3A01FC0180809180A280B3802E
:1033F000C480D580E680F780EA012196FA014080FA
:10340000642D607F0E94B2350E94C720DC01CB0191
:1034100088199909AA09BB098C159D05AE05BF0538
:1034200098F3642D6295607FC8010E94B2350E94B6
:10343000C7206B017C01F80180849184A284B3844D
:10344000F1E05F1639F15A945A94852D90E0029676
:10345000680E791E5990652D607FC8010E94B235B3
:103460000E94C720DC01CB018C199D09AE09BF0960
:1034700088159905AA05BB0598F3652D6295607FAF
:10348000C8010E94B2350E94C7206B017C01C6159D
:10349000D70501F7F801C082D182E282F382DF9181
:1034A000CF911F910F91FF90EF90DF90CF90BF9041
:1034B000AF909F908F907F906F905F904F90089506
:1034C0000F931F93CF93DF938C0180913F029091D4
:1034D0004002892B09F04BC060913E0270E06230DF
:1034E00071052CF482E080933E0262E070E0E0918E
:1034F0003A02F0913B024DB75EB741505F4F44270F
:103500005A959F01C0E0D0E0C901860F971F481768
:10351000590730F121969C01C115A4E0DA07A1F703
:103520008E1B9F0B0E942738D0934002C0933F020E
:1035300090933D0280933C020E94CF2DF801808140
:103540009181A281B3818093410290934202A09322
:103550004302B0934402DF91CF911F910F910895E0
:10356000209711F0C901DCCF80E10E94133E8DE06D
:103570000E94133ECF932091380230913902232BC1
:1035800091F4FC01C0818C2F90E0880F991F880F67
:10359000991F0E9427389093390280933802C09374
:1035A0003702CF9108958AE00E94133E80913F0236
:1035B000909140029F938F9321E030912702311127
:1035C00001C020E01F922F93209144022F9320915D
:1035D00043022F93209142022F93209141022F9377
:1035E00021E0892B09F420E01F922F9384E596E0D7
:1035F0009F938F930E944A388DB79EB70C960FB653
:10360000F8949EBF0FBE8DBF0895CF93DF93EC015A
:10361000988140913702A0913802B09139020BC0D5
:10362000FD0184E0989FE00DF11D1124208131817E
:103630002617370741F09F5F941790F380E090E0E2
:10364000DF91CF910895988382819381DF91CF910B
:103650000895CF92DF92EF92FF926B017C0109C037
:103660000E94C720292F6C157D058E052F0927FF85
:1036700009C08091BC0087FFF3CFFF90EF90DF90EF
:10368000CF90089580E30E94133E24EA2093BC006B
:103690000E94291B8091B90090E0A0E0B0E0803149
:1036A0009105A105B10521F00897A105B10509F41F
:1036B00008958FE20E94133E7F928F929F92AF9265
:1036C000BF92CF92DF92EF92FF920F931F93CF930F
:1036D000DF93782EC62F942EB52E822E0E94C720FF
:1036E0006B017C0120E8C20E28E3D21E21E0E21E1D
:1036F000F11CC701B6010E94451B7092BB0084E813
:103700008093BC00C701B6010E94291BAA24AA9479
:10371000AC0ECC23B1F0C92DDB2DB12C8FEFA81A44
:10372000B80AAC0EBD1E94E8992E89918093BB0017
:103730009092BC00C701B6010E94291BAC16BD06C1
:10374000A1F7C701B6010E94451B872D81608093B8
:10375000BB0084E88093BC00C701B6010E94291B0E
:10376000DFEFD80D882009F15801CD2F84EC982E79
:10377000CC2369F09092BC00C701B6010E94291BBE
:103780008091BB00F50181935F01C15099F7F80169
:10379000ED0FF11DEF0184E88093BC00C701B60175
:1037A0000E94291B8091BB00888384E98093BC0020
:1037B000DF91CF911F910F91FF90EF90DF90CF900D
:1037C000BF90AF909F908F907F900895BF92CF92BF
:1037D000DF92EF92FF920F931F93CF93DF93D82F37
:1037E000C62FB42E152F0E94C7206B017C0120E844
:1037F000C20E28E3D21E21E0E21EF11CC701B60171
:103800000E94451BD093BB0084E88093BC00C70195
:10381000B6010E94291B0FEF0C0FCC23A9F0CB2D72
:10382000D12F10E00F5F1F4F0C0F1D1F84E8B82E23
:1038300089918093BB00B092BC00C701B6010E9481
:10384000291BC017D107A1F784E98093BC00DF9141
:10385000CF911F910F91FF90EF90DF90CF90BF908D
:103860000895FB012FB7F8949281141644F4982B15
:10387000809592839181892381832FBF08958095BC
:10388000982392839181892381832FBF0895803665
:10389000A0F567FD32C0E82FE695E695E695F0E0E5
:1038A000EE0FFF1FE457F94FA591B491109729F13E
:1038B000877021E030E0A90102C0440F551F8A95AE
:1038C000E2F7CA014FB7F89412963C91129766231B
:1038D00081F0382B282F209512963C931297119641
:1038E0003C911197232311962C9311974FBFBD0143
:1038F0000895282F20953223EFCF8BE20E94133EAC
:10390000FB012FB7F8949281411105C0809589235E
:1039100082832FBF0895892B82832FBF0895FB01D7
:103920002FB7F8949281411109C0382F3095932315
:1039300092839181892B81832FBF0895982B928345
:103940009181892B81832FBF0895CF92DF92EF92CF
:10395000CF93DF93EC0161E088859985AA85BB85CB
:10396000892B8A2B8B2B09F460E08C810E94751FB8
:103970006B01E82E44E250E065EA7CE188810E9418
:10398000882DFC01C48AD58AE68A21E048855985BC
:103990006A857B85452B462B472B09F420E04C8517
:1039A0005D856E857F85452B462B472BB1F430E036
:1039B000232BFC0123A3488959896A897B89478B7A
:1039C000508F618F728F6AE070E04F96DF91CF91D8
:1039D000EF90DF90CF900C94192E30E1E9CFCF9388
:1039E000DF93EC0165EA7CE188810E94B72DF894B1
:1039F000FC01278D30A1232B69F44C815D816E8100
:103A00007F81FC01438F548F658F768F7894DF918F
:103A1000CF91089584E10E94133E8F929F92AF92BE
:103A2000BF92CF92DF92EF92FF921F93CF93DF93DB
:103A3000EC01EF8CF8A0E114F10409F4F0C0F701F7
:103A40008081918198A38F8F86809780A084B18494
:103A500011E081149104A104B10409F4A1C06C899E
:103A60007D898E89412F0E94801C80914502909112
:103A70004602F70191838083F0924602E09245026C
:103A800081149104A104B104E9F08B8D9C8DAD8D5E
:103A9000BE8D88169906AA06BB06A0F44F89588DDC
:103AA000698D7A8D411551056105710509F45BC079
:103AB0008C819D81AE81BF81480F591F6A1F7B1F7A
:103AC000166022C08BA131E081149104A104B104DD
:103AD00009F068C084FB992790F921E092273917F3
:103AE00009F443C04F89588D698D7A8D4115510570
:103AF00061057105D1F18C819D81AE81BF81480F37
:103B0000591F6A1F7B1F1460EF8DF8A1309709F0D1
:103B100077C02BA1488B598B6A8B7B8B2071212B13
:103B20002BA311FF5FC0880D991DAA1DBB1D12FD9F
:103B300052C029E433E33B832A838C839D83AE8385
:103B4000BF8388869986AA86BB868B8D9C8DAD8D1A
:103B5000BE8D88199909AA09BB098C879D87AE87F4
:103B6000BF8781E011C012608BA1EF8DF8A1309763
:103B7000D9F4188A198A1A8A1B8A8071812B8BA31F
:103B8000812F827011FD34C0DF91CF911F91FF9082
:103B9000EF90DF90CF90BF90AF909F908F9008955F
:103BA00010E05DCF30E096CF428153816481758112
:103BB000488B598B6A8B7B8B8071912F9460892BFA
:103BC0008BA311FF0FC08C819D81AE81BF81880DB9
:103BD000991DAA1DBB1D2B2F84179507A607270B20
:103BE00027FDA7CF4C835D836E837F8381E0CCCF9D
:103BF00040E050E0BA018C819D81AE81BF8193CFBE
:103C0000C280D380E480F580872F4C155D056E055A
:103C10008F0987FD07C08BA1B701A601C9CF85E138
:103C20000E94133E83E10E94133E8EE10E94133EE8
:103C30000F931F93CF93DF93FC01A189B2898D91DC
:103C40009C911197928B818B16968D919C911797D1
:103C5000C085D185228521113FC02FB7F894AC01D2
:103C60005527598348832FBF209145023091460242
:103C700011963C932E93B0934602A0934502A189DE
:103C8000B289109759F5278530898217930741F03B
:103C900083859485A585B6850097A105B10531F486
:103CA00080E0DF91CF911F910F910895448155815C
:103CB00066817781840F951FA61FB71F8483958324
:103CC000A683B78385E19EE19383828381E0DF91C0
:103CD000CF911F910F9108958883C6CF12964D9171
:103CE0005D916D917C911597278530898217930797
:103CF00041F083859485A585B6850097A105B1051A
:103D000051F4448355836683778381E0DF91CF91BB
:103D10001F910F9108950481158126813781800FAD
:103D2000911FA21FB31F2B2F84179507A607270BE0
:103D300027FFE7CF8DE10E94133EEF92FF920F9392
:103D40001F93CF93DF937C0167E17FE1DC018C91CE
:103D50000E94B72D8C010E94332EEC01F701848163
:103D60009581A681B7818A839B83AC83BD8380853F
:103D700091859F838E83F89419821882D801519679
:103D80008D919C915297892BB9F15396ED91FC91AD
:103D90005497D183C0835496DC93CE93539780E09D
:103DA00090E07894892B39F4DF91CF911F910F9196
:103DB000FF90EF900895C8010E945C3BD8011296D5
:103DC0008D919C91139785519E41F1F08A819B8141
:103DD000AC81BD8128E13EE1F801338322838483F5
:103DE0009583A683B783C801DF91CF911F910F916F
:103DF000FF90EF900C94AE3BF801D48BC38BD28B29
:103E0000C18B81E090E0CDCF8A819B81AC81BD8167
:103E1000F8014481558166817781272F481759071A
:103E20006A072B0B27FFD6CF8DE10E94133ECF925E
:103E3000DF92EF92CF93DF93EC01488559856A8535
:103E40007B852C858C810E94472E6B01E82E45E1F5
:103E500050E067E17FE188810E94882DFC01C086E7
:103E6000D186E28688899989908B87878C899D89FC
:103E7000AE89BF8983879487A587B68788E19EE14D
:103E80009383828368E070E0CF014196DF91CF9108
:103E9000EF90DF90CF900C94192EB0990FC08091C5
:103EA0004702909148020196109206021092050274
:103EB000909308028093070281E0089581E086BB19
:103EC0008091470290914802019690934802809316
:103ED000470220E030E830930602209305029093D9
:103EE00008028093070281E00895803678F5E82F74
:103EF000E695E695E695F0E0EE0FFF1FE457F94FE3
:103F0000A591B491109711F1877021E030E0A901DB
:103F100002C0440F551F8A95E2F7CA013FB7F894D3
:103F200012962C91129761110FC04095242312967E
:103F30002C93129711962C911197282B11962C9354
:103F400011973FBFBD010895242BF1CF8CE20E9451
:103F5000133E1F920F920FB60F9211240BB60F92C1
:103F6000EF92FF920F931F932F933F934F935F9383
:103F70006F937F938F939F93AF93BF93CF93DF9371
:103F8000EF93FF930DC07A0180918400909185009A
:103F90008E199F0997FD7CC07894B2999AC0F894C5
:103FA000C0912202D0912302EA81FB81309709F06F
:103FB000ADC0EA8DFB8D2C8D20838E859F8501976A
:103FC00009F4C1C09F878E8788859985AA85BB859E
:103FD0004C815D816E817F81480F591F6A1F7B1F55
:103FE0004C835D836E837F8320832CA525FF0EC0C9
:103FF0000C851D85012E000C220B330B800F911FA9
:10400000A21FB31F88879987AA87BB87E881F98198
:104010000481158126813781872F40175107620758
:10402000830B87FDB0CF7801F0932302E093220247
:10403000A0912402B091250214960D911D912D910D
:104040003C911797872F401751076207830B87FF13
:10405000FD01DF010190F081E02D048115812681B1
:104060003781872F401751076207830B87FFF1CFF6
:10407000F983E883CD93DC93D0932502C093240287
:1040800080918400909185008E199F0997FF84CFBD
:10409000863A9F4F0CF06AC0F0928900E092880047
:1040A000FF91EF91DF91CF91BF91AF919F918F9150
:1040B0007F916F915F914F913F912F911F910F9140
:1040C000FF90EF900F900BBE0F900FBE0F901F90C0
:1040D0001895F89480918400909185009701281B91
:1040E000390B2038314CDCF12091260227FF43C0E8
:1040F0009C01205C304E30938B0020938A0024E09A
:1041000026BB90938900809388003ECFCE011995FD
:104110004C815D816E817F81811178CFE881F98149
:10412000E480F580F0932302E09322028091240240
:1041300090912502C817D90709F026CFF0932502E0
:10414000E093240221CFCE010E947637EA8DFB8DC9
:104150009C8D90834C815D816E817F81DDCF20912C
:1041600027022111C1CF8AE20E94133E7894B299AE
:10417000B0CFF89409CF9C012854344F30938B0072
:1041800020938A0024E026BB7C01F39485CF2FB7CF
:10419000F89460918400709185008091470290911D
:1041A0004802B09902C02FBF08952FBF7F3FE1F3AF
:1041B0000196089578940E942C3C2FEF260F6623D9
:1041C000C1F0FC018FEF9FEF31918327082E82957C
:1041D000807F8025092E982F82958F7008268695DE
:1041E00098278927880F880F880F8025215060F72E
:1041F00008958FEF9FEF08956F927F928F929F9215
:10420000AF92BF92CF92DF92EF92FF920F931F93E4
:10421000FC0183818F9382818F93848135014601D4
:10422000680E711C811C911CD401C301BF93AF9314
:104230009F936F9281818F9380818F931F930F93B0
:10424000FF92EF925F934F933F932F931F926F9341
:1042500084E096E09F938F930E944A388DB79EB773
:1042600044960FB6F8949EBF0FBE8DBF1F910F915D
:10427000FF90EF90DF90CF90BF90AF909F908F9086
:104280007F906F900895CF93DF93EC016A8D662342
:1042900009F453C0FC0150E031E020E0A38DB48D5F
:1042A0004C91958D942309F0532B2F5F330F339648
:1042B0002613F4CF2C85922F952729F08D858527FD
:1042C00080959823D9F4888D5D8787FD03C0815040
:1042D00070F1888F4C815D816E817F8188859985A1
:1042E000AA85BB85840F951FA61FB71F8C839D834E
:1042F000AE83BF8381E0DF91CF910895982F909591
:1043000029238523822B8C879E859830E0F621E037
:10431000290F2E87FE01E90FF11D878710922602D3
:1043200081E0809349028FEF888F5D87D3CF109211
:10433000260291E090934902CCCF50E0BBCF0F937F
:104340001F93CF93DF938C016CED71E2FC018081B0
:104350000E94B72DEC010E945C3BF801848195819D
:10436000A681B7818C839D83AE83BF8340855185B1
:1043700062857385488759876A877B8780898D879F
:104380008C871E861F8A8EEF888F8485898F87FD94
:1043900010C0452B462B472B29F4DF91CF911F915D
:1043A0000F910895CE01DF91CF911F910F910C9441
:1043B000AE3B8FE10E94133ECF93FC01C481C93014
:1043C000B8F44C2F50E09A01220F331F420F531FB5
:1043D000455E5F4F6CED71E2FC0180810E94882D8B
:1043E000FC01C28F23E431E233832283CF9108950D
:1043F00081E20E94133E0F931F93CF93DF938C01B2
:104400006CED71E2DC018C910E94B72DFC01D801AA
:1044100014969C91828D9817B8F4292F30E0E90109
:10442000CC0FDD1F2C0F3D1FEF01C20FD31FF80172
:10443000648580850E94471C6B8F7C8F8D8FDF91F8
:10444000CF911F910F91089580E20E94133EFC01CD
:104450004481558166817781208580810C94472E27
:10446000FC01868580FF06C0218932892F5F3F4F7E
:10447000328B218B816086871092260281E08093A7
:104480004C02448155816681778180859185A28522
:10449000B385840F951FA61FB71F84839583A683BA
:1044A000B78381E00895FC0196859160968710920C
:1044B000260281E080934B0280E00895FC019289FE
:1044C0009160928B1092260281E080934A0280E0F4
:1044D00008950F931F93CF93DF93FC01C081D18187
:1044E000128103816DEE72E28C2F0E94B72DFC01C8
:1044F000E05BFF4F23812F9322812F9321812F9304
:1045000020812F933697808182FB882780F91F9224
:104510008F930F931F93DF93CF9389E096E09F9340
:104520008F930E944A388DB79EB70C960FB6F894B9
:104530009EBF0FBE8DBFDF91CF911F910F91089548
:104540000F931F93CF93DF938C016DEE72E2DC012A
:104550008C910E94B72DEC01F80180859185A28590
:10456000B385FE01E45BFF4F80839183A283B38315
:10457000892B8A2B8B2B59F4349711821082C65BBE
:10458000DF4F1882DF91CF911F910F910895F801AD
:1045900084819581A681B781FE01E05BFF4F808316
:1045A0009183A283B3836EEB7BE2D8011C968C913E
:1045B0000E94B72DFE01E85BFF4F91838083339605
:1045C000D80150968C918083C65BDF4F86E088834C
:1045D000DF91CF911F910F9108950F931F93CF9368
:1045E000DF938C0144E550E06DEE72E2FC018081C6
:1045F0000E94882DEC0180E392E29B838A8367E22C
:1046000072E3F80184810E94B72D9D878C87DF912A
:10461000CF911F910F9108950F931F93CF93DF9325
:104620008C0148E450E06CE073E2FC0180810E9460
:10463000882DEC0183E592E29B838A8360E275E139
:10464000F80184810E94B72D9D878C87DF91CF91DF
:104650001F910F9108950F931F93CF93DF938C01B8
:104660004CE450E06BE273E2FC0180810E94882DF3
:10467000EC018EE592E29B838A8367E272E3F801A4
:1046800084810E94B72D9D878C87DF91CF911F91E8
:104690000F9108950F931F93CF93DF938C016DEECD
:1046A00072E2FC0180810E94B72DEC010E945C3B0C
:1046B0001E86F80184819581A681B7810097A105A6
:1046C000B105F1F088879987AA87BB87188A1F866A
:1046D0001A8A198A1B8AF8940E94C72008851985AE
:1046E0002A853B85DC01CB01800F911FA21FB31FE0
:1046F0008C839D83AE83BF83CE010E94AE3B7894B2
:10470000DF91CF911F910F9108950F931F93CF9336
:10471000DF938C016BE57AE3FC0180810E94B72D69
:10472000EC010E945C3B1E86F80180859185A28584
:10473000B385892B8A2B8B2B29F4DF91CF911F9185
:104740000F91089584819581A681B7818C839D8383
:10475000AE83BF8380859185A285B385888799873D
:10476000AA87BB871B8A1A8A1D8A1C8A1E8A84858F
:10477000888BCE01DF91CF911F910F910C94AE3BAE
:104780002F923F924F925F926F927F928F929F9261
:10479000AF92BF92CF92DF92EF92FF920F931F934F
:1047A000CF93DF9300D01F921F92CDB7DEB73C01AD
:1047B0006BE273E2DC018C910E94B72D4C018AE31D
:1047C0008B83D4011C96ED91FC911D978E010C5F9B
:1047D0001F4F21E0AE014D5F5F4F61E080810E947D
:1047E0005C1B8C8184FF06C0F40185899689019643
:1047F000968B858B82E78D830E94C7201B012C013D
:10480000D4011C96ED91FC911D978E010F5F1F4FF7
:1048100022E0AE014B5F5F4F61E080810E945C1B34
:104820000E94C72029812F71A22EB12CBA2CAA2454
:104830002A81A22A0B2C000CCC08DD087B018C01FC
:10484000E218F30804091509A2019101F30160813E
:10485000C40143960E94FC200F900F900F900F9080
:104860000F90DF91CF911F910F91FF90EF90DF900C
:10487000CF90BF90AF909F908F907F906F905F9000
:104880004F903F902F9008952F923F924F925F92BA
:104890006F927F928F929F92AF92BF92CF92DF9250
:1048A000EF92FF920F931F93CF93DF931F921F926C
:1048B000CDB7DEB73C016CE073E2FC0180810E9461
:1048C000B72D4C018FEA89831A820E94C7201B01F1
:1048D0002C019E012F5F3F4F42E061E0F40184858F
:1048E00095850E9441160E94C7202A812F71F6E00B
:1048F0002F9F500111240B2C000CCC08DD087B01EC
:104900008C01E218F30804091509A2019101F301D1
:104910006081C4010F960E94FC200F900F90DF91E0
:10492000CF911F910F91FF90EF90DF90CF90BF90AC
:10493000AF909F908F907F906F905F904F903F903F
:104940002F9008957F928F929F92AF92BF92CF92B5
:10495000DF92EF92FF920F931F93CF93DF937C012F
:10496000DC01DC916BE57AE38D2F0E94B72D8C0181
:10497000F701C481B084A184DC011F969C90B2E051
:104980009B1609F44FC00E94C7206B017C012B2DA0
:104990003A2D4C2F61E0D8011C968D919C911D976A
:1049A0000E9441160E94C7208B019C010C191D0911
:1049B0002E093F09013213402105310558F54C2FCE
:1049C00050E0E1E09E1659F1AF92BF925F934F9392
:1049D000FF92EF92DF92CF921F92DF938EE096E0EC
:1049E0009F938F930E944A388DB79EB70C960FB64F
:1049F000F8949EBF0FBE8DBFDF91CF911F910F9195
:104A0000FF90EF90DF90CF90BF90AF909F908F90EE
:104A10007F90089540E050E0E1E09E12D5CF6B0119
:104A20007C01D2CFDC011C96ED91FC911D97948006
:104A30008280738040E0682D772D892D0E94801C34
:104A40000E94C7206B017C01B0E1CB0ED11CE11CA0
:104A5000F11C0E94C7202F2DC616D706E806290B89
:104A600027FFF7CFF89441E0682D772D892D0E941C
:104A7000801C0E94C7206B017C0178942B2D3A2D5D
:104A80004C2F61E0F801848595850E9441164C2FDA
:104A900050E09ACFCF93DF93EC0105969F938F93CD
:104AA0008C811F928F9389818F9388818F931F921E
:104AB0006F938FEF95E09F938F930E944A381C82EB
:104AC000888199810196998388838DB79EB70A96CC
:104AD0000FB6F8949EBF0FBE8DBFDF91CF910895A2
:104AE0000F931F93CF93DF9300D0CDB7DEB7DC01D8
:104AF0001C96ED91FC911D9788E18B838E010F5FD1
:104B00001F4F22E0AE014D5F5F4F61E080810E9448
:104B10005C1B89819A819827892798270F900F908D
:104B20000F90DF91CF911F910F9108954F925F9257
:104B30006F927F928F929F92AF92BF92CF92DF92AD
:104B4000EF92FF920F931F93CF93DF934C016DEE83
:104B500072E2FC0180810E94B72DEC010E94C72007
:104B60002B013C01CE010E9470258C010E94C720C0
:104B70000834110511F1A12CB12C65017B018C01C8
:104B8000E418F50806091709A3019201F4016081F0
:104B9000CE010F960E94FC20DF91CF911F910F91C3
:104BA000FF90EF90DF90CF90BF90AF909F908F904D
:104BB0007F906F905F904F90089524E0A22EB12CCB
:104BC000C12CD12CDBCF0F931F93CF93DF93EC013C
:104BD000F8940E94C720088519852A853B85DC0149
:104BE000CB01800F911FA21FB31F8C839D83AE83C7
:104BF000BF83CE010E94AE3B7894DF91CF911F918D
:104C00000F9108950F931F93CF93DF938C016CE066
:104C100073E2FC0180810E94B72DEC010E945C3B95
:104C20001E86F80184819581A681B7810097A10530
:104C3000B10529F4DF91CF911F910F9108958887D5
:104C40009987AA87BB87188A1F861A8A198A1B8A9E
:104C5000CE01DF91CF911F910F910C94E3250F931B
:104C60001F93CF93DF93EC01F8940E94C72008852F
:104C700019852A853B85DC01CB01800F911FA21F7E
:104C8000B31F8C839D83AE83BF83CE010E94AE3B56
:104C90007894DF91CF911F910F9108950F931F93F7
:104CA000CF93DF938C016BE273E2FC0180810E9461
:104CB000B72DEC010E945C3B1A8AF8018481958132
:104CC000A681B7810097A105B10529F4DF91CF91A5
:104CD0001F910F91089588879987AA87BB871C8A9F
:104CE0001B8A1E8A1D8A1F8A1F861E86198A188A99
:104CF000CE01DF91CF911F910F910C942F26FC01D3
:104D00001092260281E080934D02818D8160818F17
:104D1000448155816681778180859185A285B3859F
:104D2000840F951FA61FB71F84839583A683B7831F
:104D300081E008950F931F93CF93DF938C016CED67
:104D400076E2FC0180810E94B72DEC010E945C3B61
:104D5000F80184819581A681B7818C839D83AE8380
:104D6000BF8380859185A285B38588879987AA8727
:104D7000BB87892B8A2B8B2B29F4DF91CF911F9135
:104D80000F91089584859585A685B7858C879D8725
:104D9000AE87BF8780899189A289B389888B998BD7
:104DA000AA8BBB8B84898E8B1F8ACE01DF91CF911A
:104DB0001F910F910C94AE3BFF920F931F93CF93D3
:104DC000DF93EC01F88483E08F15E0F04AE150E0D6
:104DD0006CED76E288810E94882D8C018FE796E247
:104DE000F8019383828360E275E18C810E94B72D84
:104DF000F801958B848BF08EDF91CF911F910F91ED
:104E0000FF90089587E20E94133ECF93DF93EC0159
:104E10006B817C818D8140E00E948F1C8D859E85F9
:104E20000E945B196E817F81888541E00E94311C60
:104E30008D859E850E945B1969857A858B8541E009
:104E4000DF91CF910C94311C1F93CF93DF93EC0132
:104E5000162F8D859E850E945B1969857A858B85C5
:104E600041E00E94311C6E817F81888541E00E9473
:104E7000311C8D859E850E945B196B817C818D81A3
:104E800040E00E948F1C8D859E850E945B19688181
:104E900079818A8140E00E948F1C612FCE01DF91D1
:104EA000CF911F910C9483198F929F92AF92BF92D2
:104EB000CF92EF920F931F93CF93DF93EC014801B2
:104EC00059011F92EF92BF92AF929F920F937F93DF
:104ED0006F935F934F931F92CF9283E196E09F93DE
:104EE0008F930E944A388DB79EB70E960FB6F894EE
:104EF0009EBF0FBE8DBFE11009C08C859D85AE851C
:104F0000BF8588169906AA06BB0688F48F898F5F2D
:104F10008F8B9E898917B0F4DF91CF911F910F91EC
:104F2000EF90CF90BF90AF909F908F900895888919
:104F30009989AA89BB8988159905AA05BB0530F30B
:104F40001F8AEACF809127028111FACF86E20E9460
:104F5000133E9F92AF92BF92CF92DF92EF92FF9259
:104F60000F931F93CF93DF93EC01C62E942ED52E73
:104F7000B22E78016C85862F8160A82EC11085C065
:104F80006A2DCE010E9424278FEF8B0DBB2009F4E0
:104F90006EC06701C80ED11C69857A858B8541E09A
:104FA0000E94311C08E010E08D859E850E945B19EF
:104FB0006E817F81888541E00E94311C8D859E85B0
:104FC0000E945B19110FE985FA8590818B858923F1
:104FD00091E009F490E0192B688179818A8140E0A1
:104FE0000E948F1C015001F769857A858B8541E00D
:104FF0000E94311CCE14DF04F1F06B817C818D8125
:1050000040E00E948F1C8D859E850E945B196E81F9
:105010007F81888541E00E94311C8D859E850E949C
:105020005B19688179818A8140E00E948F1CF701B9
:1050300011937F01B1CF69857A858B8541E00E940C
:10504000311C8D859E850E945B196E817F818885CC
:1050500041E00E94311C8D859E850E945B1968810C
:1050600079818A8140E00E948F1CF6011083CE0175
:10507000DF91CF911F910F91FF90EF90DF90CF9034
:10508000BF90AF909F900C940527CE010E942427DB
:10509000092D1D2DCA94D12CEFEFCE1ADE0AC00EB9
:1050A000D11EF80161918F01CE010E948319C016B3
:1050B000D106B9F765CFDF92EF92FF920F931F935E
:1050C000CF93DF937C01C62FD42E152FFC0164856E
:1050D0000E9424270FEF0C0FCC2371F0CD2DD12F80
:1050E00010E00F5F1F4F0C0F1D1F6991C7010E9439
:1050F0008319C017D107C9F7C701DF91CF911F915D
:105100000F91FF90EF90DF900C940527CF92DF92E4
:10511000EF92FF92CF93DF93FC01A085B18582854A
:105120008C93968581E089278687C82FC170C688B1
:10513000D788E08CF18C97859F5FD1899D1708F007
:105140005FC0892F869586958695DF01A80FB11DD2
:105150005A962C9130E0892F877002C0359527959B
:105160008A95E2F72170B701A601C217A9F033C0F2
:10517000892F869586958695DF01A80FB11D5A96D1
:105180002C9130E0892F877002C0359527958A953C
:10519000E2F72170C2131FC04C0D5D1D6E1D7F1DF7
:1051A0009F5F9D1728F38BE79BE293838283848123
:1051B0009581A681B781480F591F6A1F7B1F4483C1
:1051C00055836683778381E0DF91CF91FF90EF90E5
:1051D000DF90CF900895978784819581A681B781CC
:1051E000480F591F6A1F7B1F44835583668377834B
:1051F00081E0DF91CF91FF90EF90DF90CF90089505
:10520000B701A601D0CF6F927F928F92CF92DF929B
:10521000EF92FF92CF93DF93EC0160E08C810E94CC
:10522000751F3B01882EC884D984EA84FB84D7FC8F
:1052300024C0A601415F5F4F63E079E288810E944C
:10524000882DFC01608271828282D686C5868C851B
:105250009D859483838388899989AA89BB8981875D
:105260009287A387B487DF91CF91FF90EF90DF9073
:10527000CF908F907F906F90089584E20E94133EAC
:10528000CF92DF92EF92FF920F931F93CF93DF9312
:10529000EC01E885F9858A8580830E94C7203E85D8
:1052A00021E023272E872F852F5F2F87213009F4B8
:1052B0005CC02530E0F40C811D812E813F814A893C
:1052C0005B896C897D89DB01CA01800F911FA21F58
:1052D000B31F8C839D83AE83BF8381E0DF91CF9129
:1052E0001F910F91FF90EF90DF90CF900895CC80A9
:1052F000DD80EE80FF80AB01BC014C195D096E09B9
:105300007F098E899F89A88DB98D481B590B6A0B1F
:105310007B0BDB01CA010296A11DB11DB7FD34C094
:10532000B595A79597958795B595A79597958795E1
:105330000A891B892C893D89800F911FA21FB31FE9
:105340008E8B9F8BA88FB98F26E838E23B832A8308
:105350004C0D5D1D6E1D7F1D840F951FA61FB71F71
:105360008C839D83AE83BF83B8CF0C811D812E813A
:105370003F81AB01BC01401B510B620B730B4E8B89
:105380005F8B688F798F9BCFDB01CA010596A11DCA
:10539000B11DC6CFEF92FF920F931F93CF93DF9370
:1053A0007C016BE67AE2FC0180810E94B72DEC0162
:1053B0001E8511FF07C0DF91CF911F910F91FF90C4
:1053C000EF900895F701048160857185F4840B30B6
:1053D00008F045C0FAE0FF1508F441C0402F50E046
:1053E0004A960E94343F1F86117312601E87802FD9
:1053F000880F880F880F898BFF0CFF0CFF0CF88A31
:10540000002349F08A8D8F738A3229F480E499E26F
:105410009B838A830CC08A899B89AC89BD898E8BCA
:105420009F8BA88FB98F86E898E29B838A83F89434
:105430000E94C720DC01CB018058934FAF4FBF4F74
:105440008C839D83AE83BF83CE010E94AE3B789454
:10545000DF91CF911F910F91FF90EF90089582E21D
:105460000E94133E0F931F93CF93DF938C016CED3B
:1054700071E2DC018C910E94B72DEC01D8011496E9
:10548000EC918F898E0F8F8BF8948E85E817D0F46E
:105490008E1BF0E03F96EC0FFD1FDE011F962FEFF5
:1054A000280F30E0205F3F4F2C0F3D1F91919D93BF
:1054B000A217B307D9F78E877894DF91CF911F9108
:1054C0000F9108951E868EEF888F7894DF91CF918B
:1054D0001F910F9108957F928F929F92AF92BF92EA
:1054E000CF92DF92EF92FF920F931F93CF93DF93B0
:1054F000EC0144E250E06BE67AE288810E94882D5C
:105500008C0178848C809D80AE80BF80CC84DD84CB
:10551000EE84FF8461E0711001C060E0882D0E947C
:10552000471CF80163877487858761E08C2D0E9492
:10553000751FF80160877187828788899989AA8990
:10554000BB89828B938BA48BB58B711018C091E0B3
:105550008C149D04AE04BF04C1F080E0892BF801D7
:105560008687DF91CF911F910F91FF90EF90DF9091
:10557000CF90BF90AF909F908F907F90089591E1D2
:105580008C149D04AE04BF0441F780E2E7CFCF93B3
:10559000DF93EC018E8585FD0DC0688579858A8550
:1055A00041E00E94801C8E85807381608E87DF9130
:1055B000CF910895688579858A8541E00E948F1C86
:1055C0008E85807381608E87DF91CF910895CF9310
:1055D000DF93FC01A385B4855C918785982F977034
:1055E00021E030E001C0220F9A95EAF7982F9695B6
:1055F00096959695DF01A90FB11D5A969C915A97E1
:1056000045854523E1F0292B5A962C938F5F90898D
:105610008917E8F487874481558166817781868977
:105620009789A08DB18D840F951FA61FB71F848306
:105630009583A683B78381E0DF91CF91089520956C
:1056400029235A962C938F5F9089891718F3EF01BD
:10565000CF010E94C72A8E8588608E87109226020D
:1056600081E080934E0280E0DF91CF910895CF9347
:10567000DF93FC01A385B4859C9185858923E9F09E
:10568000868584608687878591E0980F9787803428
:1056900008F5448155816681778186899789A08D37
:1056A000B18D840F951FA61FB71F84839583A68392
:1056B000B78381E0DF91CF910895868582FFE3CFA4
:1056C000178687EE9AE293838283CF01DF91CF9191
:1056D0000C94E72AEF01108ACF010E94C72A8E8519
:1056E00088608E871092260281E080934E0280E0CF
:1056F000DF91CF9108951F93CF93DF93EC01188929
:10570000112369F14E8545FD23C01F8687E39BE287
:105710009B838A838E899F89A88DB98D880F991F55
:10572000AA1FBB1F880F991FAA1FBB1F4C815D8139
:105730006E817F81840F951FA61FB71F8C839D8369
:10574000AE83BF8311E0812FDF91CF911F91089528
:1057500040716B857C858D850E94311CD6CF0E945F
:10576000C72A8E8588608E871092260281E08093FA
:105770004E02812FDF91CF911F91089549E150E0B2
:105780006EEB7BE2FC0180810E94882D26E13FE2E6
:10579000FC013383228321E33FE23387228708958C
:1057A000CF93DC0114969C91149720E030E0C22F37
:1057B000F901E458F94FE4919E1741F02F5F3F4FF4
:1057C00020313105A1F78DE20E94133E87E98093D5
:1057D0007A002830E8F420917E0081E090E00C2EE1
:1057E00001C0880F0A94EAF7822B80937E004FE174
:1057F00050E060ED7BE28C910E94882DFC0186E1F7
:105800009CE293838283C28F81E0858FCF9108953C
:1058100020917D003C2F377081E090E001C0880F1F
:105820003A95EAF7822B80937D00E1CFFC018091CD
:105830007A0086FF0EC084819581A681B781885346
:10584000984FAF4FBF4F84839583A683B78381E082
:105850000895828D90910002981781F09F3F59F72B
:1058600080930002982F987090937B0087708064DB
:1058700080937C0087ED80937A00DDCF8FEF80935B
:1058800000022091780030917900858D968D8917DE
:1058900080F544895589240F351F8F5F358B248B04
:1058A000858F891760F18689978928173907C8F18C
:1058B000808D918D82179307A0F1138E109226028E
:1058C00081E0809350024089518962897389808583
:1058D0009185A285B385840F951FA61FB71F808B66
:1058E000918BA28BB38B84839583A683B78381E04E
:1058F000089581E0358B248B858F8917A0F644812C
:1059000055816681778184859585A685B785840FC5
:10591000951FA61FB71F84839583A683B78381E055
:105920000895838D8F5F838F948D891738F28091CE
:1059300027028111C2CF8AE10E94133EEF92FF92AB
:105940000F931F93CF93DF938C016EEB7BE2FC01EF
:1059500080810E94B72DEC01F8948E8980FF13C0DE
:105960007E01F8E0EF0EF11CC7010E945C3BF801DC
:1059700084819581A681B7818C879D87AE87BF87FB
:10598000C7010E94AE3B7894DF91CF911F910F9198
:10599000FF90EF9008951F93CF93DF93EC01162FA4
:1059A000AC89BD891097B9F01296ED91FC911397CF
:1059B0008D919C9111979D8B8C8B11961C921E92B0
:1059C00013961C921E921297612FCD011995AC89E6
:1059D000BD89109749F71092260281E080934F020B
:1059E000DF91CF911F910895EF92FF921F93CF9374
:1059F000DF937C01FC0110816EEB7BE2812F0E9422
:105A0000B72DEC01F8948E8980FF09C0F7016481FD
:105A10006F8B8A7F84608E8BCE010E94CB2CCE014F
:105A20000E945C3BCE0108960E945C3B1E8A8F89D7
:105A300078941F921F921F921F921F928F931F9212
:105A40001F921F921F938BE396E09F938F930E9468
:105A50004A388DB79EB70C960FB6F8949EBF0FBE0E
:105A60008DBFDF91CF911F91FF90EF900895CF935D
:105A7000DF93EC010E945C3BCE0108960E945C3BE8
:105A8000EC89FD89309751F09081818113821282D7
:105A900011821082E92FF82F3097B1F71D8A1C8AE6
:105AA000188E1F8A1E8ADF91CF9108950F931F933E
:105AB000CF93DF938C016EEB7BE2FC0180810E942F
:105AC000B72DEC01F8940E94372D81E08E8BF80100
:105AD00084819581A681B7818C839D83AE83BF83AA
